:020000040800F2
:1000000000000A2055520108C5140108C91401084E
:10001000CD140108D1140108D51401080000000016
:1000200000000000000000000000000061BF0008A8
:10003000D914010800000000F1BF000855C00008F5
:10004000A5520108A5520108A5520108A5520108B0
:10005000A5520108A5520108A5520108A5520108A0
:10006000A5520108A5520108A5520108DD14010896
:10007000A5520108A5520108A5520108A552010880
:10008000A5520108A5520108A5520108A552010870
:10009000A5520108A5520108A5520108E91401085A
:1000A000A5520108A5520108A5520108A552010850
:1000B000FD1401080915010815150108211501088D
:1000C000A55201082D150108A5520108A5520108E5
:1000D0003915010845150108A552010851150108F7
:1000E000A5520108A5520108A5520108A552010810
:1000F000A5520108A5520108A55201080000000000
:10010000A5520108A5520108A5520108A5520108EF
:10011000A5520108A55201085D150108A552010864
:10012000A5520108A5520108A5520108A5520108CF
:10013000A5520108A5520108A5520108A5520108BF
:1001400079150108A5520108A5520108A552010818
:10015000A5520108A5520108A5520108A55201089F
:1001600085150108A5520108A5520108A5520108EC
:10017000A5520108A552010800000000000000007F
:10018000A5520108A5520108A5520108A55201086F
:10019000A5520108A552010800000000000000005F
:1001A0000000000000000000A5520108A55201084F
:0C01B000A5520108A5520108A552010843
:1001C00010B5054C237833B9044B13B10448AFF391
:1001D00000800123237010BDC80000200000000033
:1001E000D070010808B5034B1BB103490348AFF3B6
:1001F000008008BD00000000CC000020D070010885
:1002000081F0004102E000BF83F0004330B54FEAC7
:1002100041044FEA430594EA050F08BF90EA020F34
:100220001FBF54EA000C55EA020C7FEA645C7FEAC7
:10023000655C00F0E2804FEA5454D4EB5555B8BFEA
:100240006D420CDD2C4480EA020281EA030382EA5B
:10025000000083EA010180EA020281EA0303362DED
:1002600088BF30BD11F0004F4FEA01314FF4801CC0
:100270004CEA113102D0404261EB410113F0004FD2
:100280004FEA03334CEA133302D0524263EB430389
:1002900094EA050F00F0A780A4F10104D5F1200E27
:1002A0000DDB02FA0EFC22FA05F2801841F1000182
:1002B00003FA0EF2801843FA05F359410EE0A5F156
:1002C00020050EF1200E012A03FA0EFC28BF4CF087
:1002D000020C43FA05F3C01851EBE37101F000453D
:1002E00007D54FF0000EDCF1000C7EEB00006EEB4A
:1002F0000101B1F5801F1BD3B1F5001F0CD34908D4
:100300005FEA30004FEA3C0C04F101044FEA44522A
:1003100012F5800F80F09A80BCF1004F08BF5FEAB1
:10032000500C50F1000041EB045141EA050130BD91
:100330005FEA4C0C404141EB010111F4801FA4F134
:100340000104E9D191F0000F04BF01460020B1FA89
:1003500081F308BF2033A3F10B03B3F120020CDAC1
:100360000C3208DD02F1140CC2F10C0201FA0CF09F
:1003700021FA02F10CE002F11402D8BFC2F1200C04
:1003800001FA02F120FA0CFCDCBF41EA0C019040BA
:10039000E41AA2BF01EB0451294330BD6FEA040403
:1003A0001F3C1CDA0C340EDC04F11404C4F12002EE
:1003B00020FA04F001FA02F340EA030021FA04F300
:1003C00045EA030130BDC4F10C04C4F1200220FA57
:1003D00002F001FA04F340EA0300294630BD21FA95
:1003E00004F0294630BD94F0000F83F4801306BF5B
:1003F00081F480110134013D4EE77FEA645C18BF4F
:100400007FEA655C29D094EA050F08BF90EA020FE5
:1004100005D054EA000C04BF1946104630BD91EADD
:10042000030F1EBF0021002030BD5FEA545C05D1E0
:100430004000494128BF41F0004130BD14F580041F
:100440003CBF01F5801130BD01F0004545F0FE4193
:1004500041F470014FF0000030BD7FEA645C1ABFC8
:10046000194610467FEA655C1CBF0B46024650EAFF
:10047000013406BF52EA033591EA030F41F400212B
:1004800030BD00BF90F0000F04BF0021704730B5B1
:100490004FF4806404F132044FF000054FF0000186
:1004A00050E700BF90F0000F04BF0021704730B547
:1004B0004FF4806404F1320410F0004548BF40421C
:1004C0004FF000013EE700BF42004FEAE2014FEA71
:1004D00031014FEA02701FBF12F07F4393F07F4F4C
:1004E00081F06051704792F0000F14BF93F07F4F7E
:1004F000704730B54FF4607401F0004521F00041C1
:1005000020E700BF50EA010208BF704730B54FF046
:1005100000050AE050EA010208BF704730B511F04B
:10052000004502D5404261EB41014FF4806404F183
:1005300032045FEA915C3FF4DCAE4FF003025FEA05
:10054000DC0C18BF03325FEADC0C18BF033202EB8D
:10055000DC02C2F1200300FA03FC20FA02F001FAE7
:1005600003FE40EA0E0021FA02F11444C1E600BF86
:1005700070B54FF0FF0C4CF4E06C1CEA11541DBF39
:100580001CEA135594EA0C0F95EA0C0F00F0DEF804
:100590002C4481EA030621EA4C5123EA4C5350EAE9
:1005A000013518BF52EA033541F4801143F480133A
:1005B00038D0A0FB02CE4FF00005E1FB02E506F0CB
:1005C0000042E0FB03E54FF00006E1FB03569CF020
:1005D000000F18BF4EF0010EA4F1FF04B6F5007F26
:1005E00064F5407404D25FEA4E0E6D4146EB060698
:1005F00042EAC62141EA55514FEAC52040EA5E5021
:100600004FEACE2EB4F1FD0C88BFBCF5E06F1ED8CA
:10061000BEF1004F08BF5FEA500E50F1000041EB01
:10062000045170BD06F0004646EA010140EA0200AE
:1006300081EA0301B4EB5C04C2BFD4EB0C0541EAD0
:10064000045170BD41F480114FF0000E013C00F3E5
:10065000AB8014F1360FDEBF002001F0004170BD09
:10066000C4F10004203C35DA0C341BDC04F1140422
:10067000C4F1200500FA05F320FA04F001FA05F2AE
:1006800040EA020001F0004221F0004110EBD3707B
:1006900021FA04F642EB06015EEA430E08BF20EAA7
:1006A000D37070BDC4F10C04C4F1200500FA04F34A
:1006B00020FA05F001FA04F240EA020001F00041DC
:1006C00010EBD37041F100015EEA430E08BF20EA4F
:1006D000D37070BDC4F1200500FA05F24EEA020E97
:1006E00020FA04F301FA05F243EA020321FA04F0C6
:1006F00001F0004121FA04F220EA020000EBD3707D
:100700005EEA430E08BF20EAD37070BD94F0000F7C
:100710000FD101F00046400041EB010111F4801FB0
:1007200008BF013CF7D041EA060195F0000F18BF61
:10073000704703F00046520043EB030313F4801F9D
:1007400008BF013DF7D043EA0603704794EA0C0F57
:100750000CEA135518BF95EA0C0F0CD050EA41066D
:1007600018BF52EA4306D1D181EA030101F00041EA
:100770004FF0000070BD50EA410606BF1046194612
:1007800052EA430619D094EA0C0F02D150EA01361E
:1007900013D195EA0C0F05D152EA03361CBF10465F
:1007A00019460AD181EA030101F0004141F0FE41FE
:1007B00041F470014FF0000070BD41F0FE4141F482
:1007C000780170BD70B54FF0FF0C4CF4E06C1CEA82
:1007D00011541DBF1CEA135594EA0C0F95EA0C0F37
:1007E00000F0A7F8A4EB050481EA030E52EA0335F2
:1007F0004FEA013100F088804FEA03334FF0805513
:1008000045EA131343EA12634FEA022245EA11153F
:1008100045EA10654FEA00260EF000419D4208BFF0
:10082000964244F1FD0404F5407402D25B084FEA9D
:100830003202B61A65EB03055B084FEA32024FF449
:1008400080104FF4002CB6EB020E75EB030E22BFA6
:10085000B61A754640EA0C005B084FEA3202B6EB66
:10086000020E75EB030E22BFB61A754640EA5C0015
:100870005B084FEA3202B6EB020E75EB030E22BFA5
:10088000B61A754640EA9C005B084FEA3202B6EBA6
:10089000020E75EB030E22BFB61A754640EADC0065
:1008A00055EA060E18D04FEA051545EA16754FEAC7
:1008B00006164FEAC30343EA52734FEAC2025FEAE5
:1008C0001C1CC0D111F4801F0BD141EA00014FF074
:1008D00000004FF0004CB6E711F4801F04BF014345
:1008E0000020B4F1FD0C88BFBCF5E06F3FF6AFAE61
:1008F000B5EB030C04BFB6EB020C5FEA500C50F1F1
:10090000000041EB045170BD0EF0004E4EEA113173
:1009100014EB5C04C2BFD4EB0C0541EA045170BD7A
:1009200041F480114FF0000E013C90E645EA060EBE
:100930008DE60CEA135594EA0C0F08BF95EA0C0FEC
:100940003FF43BAF94EA0C0F0AD150EA01347FF434
:1009500034AF95EA0C0F7FF425AF104619462CE70B
:1009600095EA0C0F06D152EA03353FF4FDAE10466E
:10097000194622E750EA410618BF52EA43067FF4BF
:10098000C5AE50EA41047FF40DAF52EA43057FF44F
:10099000EBAE12E74FF0FF3C06E000BF4FF0010C5A
:1009A00002E000BF4FF0010C4DF804CD4FEA410CBE
:1009B0007FEA6C5C4FEA430C18BF7FEA6C5C1BD08B
:1009C00001B050EA410C0CBF52EA430C91EA030F0C
:1009D00002BF90EA020F0020704710F1000F91EA69
:1009E000030F58BF994208BF90422CBFD8176FEA37
:1009F000E37040F0010070474FEA410C7FEA6C5C05
:100A000002D150EA013C07D14FEA430C7FEA6C5C0B
:100A1000D6D152EA033CD3D05DF8040B704700BF37
:100A20008446104662468C461946634600E000BF85
:100A300001B5FFF7B7FF002848BF10F1000F01BD57
:100A40004DF808EDFFF7F4FF0CBF012000205DF822
:100A500008FB00BF4DF808EDFFF7EAFF34BF0120A7
:100A600000205DF808FB00BF4DF808EDFFF7E0FF40
:100A700094BF012000205DF808FB00BF4DF808ED91
:100A8000FFF7CEFF94BF012000205DF808FB00BFF8
:100A90004DF808EDFFF7C4FF34BF012000205DF8DA
:100AA00008FB00BF4FEA410C7FEA6C5C02D150EAC0
:100AB000013C0AD14FEA430C7FEA6C5C02D152EA56
:100AC000033C02D14FF0000070474FF00100704727
:100AD0004FEA410212F5001215D211D56FF4787366
:100AE000B3EB625212D94FEAC12343F0004343EA09
:100AF000505311F0004F23FA02F018BF40427047E4
:100B00004FF00000704750EA013005D111F000406D
:100B100008BF6FF0004070474FF00000704700BF03
:100B20004A0011D212F5001211D20DD56FF478736C
:100B3000B3EB62520ED44FEAC12343F0004343EAC1
:100B4000505323FA02F070474FF00000704750EA0C
:100B5000013002D14FF0FF3070474FF00000704776
:100B60004FEA4102B2F1E04324BFB3F5001CDCF1CF
:100B7000FE5C0DD901F0004C4FEAC0024CEA507007
:100B8000B2F1004F40EB830008BF20F00100704736
:100B900011F0804F21D113F13872BCBF01F0004039
:100BA000704741F480114FEA5252C2F11802C2F16B
:100BB000200C10FA0CF320FA02F018BF40F00100EC
:100BC0004FEAC1234FEAD32303FA0CFC40EA0C009E
:100BD00023FA02F34FEA4303CCE77FEA625307D1DB
:100BE00050EA01331EBF4FF0FE4040F44000704712
:100BF00001F0004040F0FE4040F40000704700BFAC
:100C000053B94AB9002908BF00281CBF4FF0FF3173
:100C10004FF0FF3000F07AB9ADF1080C6DE904CE69
:100C200000F006F8DDF804E0DDE9022304B07047C7
:100C30002DE9F0478C460D460446089E002B51D105
:100C40008A4217466DD9B2FA82FEBEF1000F0BD070
:100C5000CEF1200C01FA0EF520FA0CFC02FA0EF788
:100C60004CEA050C00FA0EF44FEA174A250CBCFBBF
:100C7000FAF81FFA87F90AFB18CC45EA0C4508FB7D
:100C800009F3AB420AD9ED1908F1FF3280F0238154
:100C9000AB4240F22081A8F102083D44ED1AA4B213
:100CA000B5FBFAF00AFB105544EA054400FB09F9CC
:100CB000A14509D9E41900F1FF3380F00A81A1456B
:100CC00040F2078102383C44A4EB090440EA0840A2
:100CD0000021002E61D024FA0EF4002334607360EA
:100CE000BDE8F0878B4207D9002E54D0002186E85A
:100CF00021000846BDE8F087B3FA83F1002940F0EF
:100D00008E80AB4202D3824200F2FA80841A65EBF5
:100D100003050120AC46002E3FD086E81010BDE848
:100D2000F08712B90127B7FBF2F7B7FA87FEBEF1D9
:100D3000000F34D1EB1B3A0C1FFA87FC0121B3FBE7
:100D4000F2F8250C02FB183345EA03450CFB08F3C7
:100D5000AB4207D9ED1908F1FF3002D2AB4200F2E5
:100D6000D1808046ED1AA3B2B5FBF2F002FB10551C
:100D700043EA05440CFB00FCA44507D9E41900F143
:100D8000FF3302D2A44500F2B8801846A4EB0C044D
:100D900040EA08409DE731463046BDE8F087CEF195
:100DA000200405FA0EF307FA0EF720FA04F83A0CBD
:100DB00025FA04F448EA0308B4FBF2F14FEA1845B7
:100DC00002FB11441FFA87FC45EA044501FB0CF3C2
:100DD000AB4200FA0EF409D9ED1901F1FF3080F0B1
:100DE0008A80AB4240F2878002393D44EB1A1FFAF9
:100DF00088F5B3FBF2F002FB103345EA034500FB34
:100E00000CF3AB4207D9ED1900F1FF386FD2AB42BA
:100E10006DD902383D44EB1A40EA01418FE7C1F138
:100E2000200722FA07F88B4005FA01F448EA030389
:100E300020FA07FE4FEA134CFD404EEA040EB5FBC4
:100E4000FCF94FEA1E440CFB19551FFA83F844EADB
:100E5000054509FB08F4AC4202FA01F200FA01FA76
:100E600008D9ED1809F1FF3043D2AC4241D9A9F1BC
:100E700002091D442D1B1FFA8EFEB5FBFCF00CFB76
:100E800010554EEA054400FB08F8A04507D9E418C0
:100E900000F1FF3529D2A04527D902381C4440EA89
:100EA0000940A4EB0804A0FB02894C45C6464D4608
:100EB00015D312D056B1BAEB0E0364EB050404FA55
:100EC00007F7CB401F43CC40376074600021BDE87A
:100ED000F0871846F8E69046E0E6C245EAD2B8EB5D
:100EE000020E69EB03050138E4E72846D7E74046E0
:100EF00091E78146BEE7014678E702383C4445E782
:100F0000084608E7A8F102083D442BE7704700BFF8
:100F100000B5032083B000F059FC002010F096FAD1
:100F200018B1012003B05DF804FB019010F06EFAD7
:100F3000019803B05DF804FB024A136801331360A3
:100F4000704700BF08540020014B1868704700BF6D
:100F50000854002038B50446FFF7F6FF631C054629
:100F600018BF0134FFF7F0FF401B8442FAD838BDA8
:100F7000F0B583B000230193002800F0B880856DA0
:100F80000446002D00F0A08022689368980005D5E3
:100F9000936823F0204323F03F0393609368D900C4
:100FA00017D45D4B91681B685C489B0921F0104188
:100FB000A0FB030321F03F019B0941F080519160A8
:100FC0000193019B2BB1019B013B0193019B002BE2
:100FD000F9D19368DB0014D4A36D43F01003A3652B
:100FE000E36D43F00103E36593685F074FF0010091
:100FF0000CD5A36DA36D012043F01003A36503B0CE
:10100000F0BD93685F074FF00000F2D4A36DD906DE
:10101000F0D4A36D23F4817343F00203A3659368B6
:10102000DE070AD43E4B9B68DB0706D43D49656862
:101030008B6823F47C132B438B60636BE768A66893
:1010400094F82010657E3B43334343EA453301293E
:1010500043EA014346D0A16A21B1E56A01F4707107
:1010600029430B43D568304929400B43D36093682B
:1010700091680D0703F0040317D4B3B994F8303026
:10108000277ED168E56C94F838605B0043EA8733CB
:1010900021F480412B4321F006010B43012ED36044
:1010A00028D0136923F0010313612369012B11D0A8
:1010B000136B23F00F031363A36D23F0030343F0BB
:1010C0000103A36503B0F0BD0DF0ECFBE56584F80A
:1010D000545059E7116BE36921F00F01013B0B43B9
:1010E0001363E9E7616A013943EA4143B3E7012049
:1010F00003B0F0BDE36B276C666C1569A16C3B43D4
:1011000043F00103334325F4FF650B4325F0040549
:101110002B431361C9E700BF50000020632D3E053B
:10112000000004500003045007C0F0FFF0B5034670
:1011300083B093F854200020012A019000F08480AD
:101140001A689468012014F0040483F8540008D04D
:101150009A6D42F020029A65002283F8542003B071
:10116000F0BD4D68052D72D905F01F071F26AC098B
:1011700006FA07F504F00C04ED4302F1300E08689E
:101180005EF80460C0F384603540B84028434EF8F0
:10119000040090689468250700F0040000F19F8027
:1011A000002840F09C808D680C68B5F1004F00F07D
:1011B0005E81E60D06F0040602F1140EC4F3045439
:1011C00056F80E000727A74020EA070005FA04F4A6
:1011D000204346F80E00506920F0004050610E692F
:1011E000D468042E3BD00D684869DFF830E302F183
:1011F0006007C4F3C1046400A04005F0F84557F847
:10120000264045F00045284304EA0E0E40EA0E0051
:1012100047F8260008689468E40764D50446B64990
:101220000C420FD0B549B64D8868AC4200F0E0766C
:1012300000F0BD80B34DAC4200F0DD80B24DAC4259
:1012400000F0A580002087E7022003B0F0BD023D3A
:10125000032D00F2E080DFE805F095908B830868AD
:10126000166EC0F31204C6F38467002C40F05A8156
:10127000C0F38465AF4240F09181144626F00046E9
:1012800044F8606F0868566EC0F31205C6F38467B1
:1012900002F1640E002D40F05381C0F38465AF422B
:1012A00000F05481A66804F1080EC6F38467AF42CB
:1012B00040F06F8126F00046CEF800600868E668CE
:1012C000C0F312050C34C6F38467002D40F056813C
:1012D000C0F38465BD429ED126F000462660946826
:1012E0000868E4079AD4CE68884CD2F8B050DFF88A
:1012F00030E206F01807FC40C0F31207044025EA6C
:1013000007052C437645C2F8B040044687D1002F2C
:1013100040F08680800E441C04F01F06092E00F267
:10132000B980A406012504F0F844B54006EB460058
:101330002C4300052043C50D05F0040502F1140EF1
:10134000C0F3045055F80E408E680727874024EA02
:10135000070406FA00F0204345F80E000C685EE72B
:101360004FF48070486000276FF01F05042404E7E5
:1013700018274F606FF0F855FFE612274F606FF4A3
:10138000F805FAE60C274F606FF4F835F5E610F42F
:1013900080007FF457AF5E4CA2427FF453AF8A685F
:1013A00022F0E072324342F480028A60D4E6000206
:1013B0003FF548AF564882427FF444AF8A68554CA7
:1013C000554822F0E072324342F400028A602268FB
:1013D0009209A0FB0212920902EB420292000192D2
:1013E000019A002A3FF42EAF019A013A0192019A24
:1013F000002AF9D126E710F080707FF423AF444C27
:10140000A2427FF41FAF8A6822F0E072324342F0BA
:1014100080728A60A0E606274F606FF4F865ACE63C
:1014200090FAA0F4B4FA84F4013404F01F04092CF7
:101430003FD890FAA0F4B4FA84F490FAA0F5B5FA83
:1014400085F501350134012605F01F05A40606FACD
:1014500005F504F0F8442C4390FAA0F0B0FA80F0BF
:10146000304400F01F0000EB4000000562E7E00D93
:1014700000F0040002F11407C4F30454C559072610
:1014800006FA04F425EA0405C551506940F000400D
:101490005061A4E606EB4600A5061E38012405F0BF
:1014A000F84504FA06F60005354340F0007028437D
:1014B00041E790FAA0F5B5FA85F590FAA0F4B4FAF0
:1014C00084F401340135012604F01F04AD0606FA48
:1014D00004F405F0F845254390FAA0F4B4FA84F436
:1014E000344404F01F0404EB4404A4F11E0000057E
:1014F00040F00070DBE700BF0000088000030450EC
:10150000000052C7000084CB01000080FFFF0700ED
:101510000000045050000020632D3E0500F0FF0342
:1015200000007F4090FAA0F4B4FA84F4A7423FF49C
:10153000A4AE566E02F16004C6F3846702F1640E35
:1015400090FAA0F5B5FA85F5BD421CD126F000460B
:10155000CEF800600868A668C0F31205C6F3846779
:1015600004F1080E15B390FAA0F5B5FA85F5BD4261
:101570003FF4A0AEE6680C34C6F3846790FAA0F599
:10158000B5FA85F5A6E6A66804F1080EC6F38467E9
:10159000E9E7E6680C34C6F384679BE6566E02F111
:1015A0006004C6F3846702F1640E78E6C0F38465D4
:1015B0007DE600BFF0B583B000230093002800F063
:1015C000858002681368002B04467FDB90F8253085
:1015D00003F0FF01002B7CD02769E368E6696569A9
:1015E000A069A1683B4333432B431668454D1768F8
:1015F00003430B4361683D40B1F5007F43EA0503B7
:10160000414913600B680CBF43F4007323F400736B
:101610000B6013681D0214D5370212D43B4B3C49B2
:101620001B689B09A1FB03139B0903EB83039B002E
:101630000093009B2BB1009B013B0093009B002B70
:10164000F9D13449236A8A420BBF6FF400126FF458
:1016500080024FF400114FF48001980711D12E4BF6
:1016600059681140596019680A401A6094F8253089
:1016700003F0FF00002B26D1012384F8253003B0AE
:10168000F0BD254DA868DE064CBF08431040A86099
:10169000214DE8689F064CBF08431040E8601E4893
:1016A000416145689E074CBF0D431540DB0745600F
:1016B00023D5194B1A681143196094F8253003F0AB
:1016C000FF00002BD8D0002003B0F0BD012003B0F4
:1016D000F0BD03F1804303F5043381621A6E80F894
:1016E000241042F001021A661B6E03F001030193FD
:1016F000019B0DF08DFB22686EE707490B681A40CD
:101700000A60B3E7037D20FF04020140500000207F
:10171000632D3E05000201400004014010B483B077
:101720000023019338B102681368002B03DB90F8A3
:101730002530012B04D0012003B05DF8044B704725
:1017400011680E4B0E4C41F0010111601B689B09A2
:10175000A4FB03239B09DB00022280F825200193D0
:10176000019B2BB1019B013B0193019B002BF9D104
:10177000002003B05DF8044B704700BF500000200C
:10178000632D3E050E4A0368516910B50D4CA34206
:101790000CBF4FF400134FF4800333EA010100D073
:1017A00010BD09490968890503D453610FF08CF90C
:1017B00010BD4FF4C00353610FF086F910BD00BF98
:1017C000000401400002014004020140074AD368BE
:1017D0004FF6FF010B40000243F0BF6300F4E060EE
:1017E00043F400330343D360704700BF00ED00E0D3
:1017F000184B70B4DC68C4F30224C4F10706042E4D
:1018000004F1040328BF0426062B17D9033C012545
:10181000A540013D2A400123B340013B1940A140AE
:10182000002841EA02010CDB00F1604000F5614054
:101830000901C9B280F8001370BC70470022144639
:10184000E9E7054B00F00F0009010344C9B219761E
:1018500070BC704700ED00E0FCEC00E000F01F0100
:1018600001234009024A8B4042F82030704700BFF4
:1018700000E100E088B1037910B503F0FF020446EF
:101880003BB10023022101222171184623612271FC
:1018900010BD42710DF01EFBF3E70120704700BF41
:1018A0004379012B22D00268022330B403711568FA
:1018B000012401F0100304FA03F32B434471136075
:1018C000136859B103F47813B3F5003F10D0002327
:1018D00001220271437130BC1846704703F03E0389
:1018E000022BF4D1536823435360F0E70220704782
:1018F000536843F002035360E9E700BFF8B5447949
:10190000069D012C52D096460F4602220121044624
:1019100041710271066817BB326880682D49C16247
:10192000DFF8C0C02C49C0F830C042F48052042D0A
:101930004163326048D0082D3AD0002D41D03A465C
:10194000356845F400557146356000F031FA0023E2
:10195000637110B3236943F004032361F8BD326857
:10196000C0681E49C162DFF880C01D49C0F830C0A0
:1019700042F08052042D416332601FD0082D1AD0EE
:101980002DB30022356845F000557146356000F0F2
:101990000FFA002363710028DCD1236807F01007D9
:1019A0001A680121B94011431960F8BD0220F8BD41
:1019B00006F11002C4E706F11C02E3E706F1180283
:1019C000E0E706F10802BBE706F10C02B8E706F112
:1019D0001402D7E7451A0008691A00084D1C0008D0
:1019E000691C0008591A00085D1C0008F8B5036856
:1019F00001F010071D684FF48056BE4025EA060529
:101A00001D601A6804460120B84022EA00021A60EC
:101A100059B9A06800F028FA2268136823F400532B
:101A2000136060B901232371F8BDE06800F01CFA6F
:101A30002268136823F0005313600028F2D00423B7
:101A40002371F8BD10B5846A204610F0C3FA012353
:101A5000237110BD704700BF08B5806AFFF7FAFF19
:101A600008BD00BF704700BF10B5846A236943F00A
:101A7000040323612046FFF7F5FF0123237110BD06
:101A8000704700BF03681A68910410B5044602D578
:101A90005A6B920418D41A68910002D55A6B9200BE
:101AA00000D410BD0422227122694FF0005142F08F
:101AB0000202226159631A6822F0805220461A609D
:101AC000BDE8104000F0C0B80422027102694FF472
:101AD000005142F00102026159631A6822F48052F7
:101AE0001A60FFF7CDFF2368D5E700BFF8B543794B
:101AF000012B42D04F68154602230122042F0E46C7
:101B00000446427103713AD0036805F0100572690A
:101B1000012A5FD03069F268D96B024307203A434B
:101B2000A84021EA0001AA400A43DA631968B268B2
:101B300037684FF48040A84021EA000119601E6810
:101B400040F6FE71A94026EA0106AA40B7F5004F0B
:101B500046EA02063BD0002F46D126F400461E601E
:101B60001968C02202FA05F521EA050500220121C3
:101B70001D60104621716271F8BD0220F8BD25B9C3
:101B800045E0FFF7E1F9012837D823685B6B002BAC
:101B9000F7DB0120FFF7DEF92368F2695A6405F0EC
:101BA0001005996C326A706A40F2FF37AF4021EA43
:101BB0000701AA4011439964DA6C7768FF21A940B4
:101BC00022EA010200FA05F10A43DA649FE746F4CB
:101BD0000046C4E7996BB2691F20A84021EA0001C2
:101BE000AA400A439A6395E702F0E2FE124B98423C
:101BF0000BD946F400462368B1E72369032243F07A
:101C00000803236110462271F8BD2368A5E7FFF79A
:101C10009BF9074604E0FFF797F9C01B0128ECD8B1
:101C200023685B6B1B04F6D40120FFF793F923684C
:101C3000F2691A64B3E700BF00B4C404704700BF80
:101C4000704700BF704700BF704700BF10B5846A7F
:101C50002046FFF7F3FF0123237110BD08B5806A0A
:101C6000FFF7EEFF08BD00BF10B5846A236943F09B
:101C7000040323612046FFF7E5FF0123237110BD14
:101C800000287DD001683F4A91422DE9F04103468A
:101C900063D93D4F3D4A3E480F44A2FB07273F0909
:101CA000BF0003F10C0234CA9E6818644FF0020EA4
:101CB0003243986983F825E022435FFA81FE334C72
:101CC000D1F80080DFF8BCC05F642A43AEF108059C
:101CD0000243A4FB0505D8691C6ADFF8D0E0024383
:101CE00022432C4C280928F4FF48614598BFA6469A
:101CF000BF0828F0700800F01C00012442EA080226
:101D000004FA00F00EEB870C234D0A60B6F5804F05
:101D10001865C3F848C0DD6428D05968CAB20139D3
:101D200003294EF82720686025D81C491C4898656F
:101D30001144013A890002F0030204FA02F200247D
:101D40005965DA650C60426000200122D86383F88F
:101D5000240083F82520BDE8F081124F0B4A124879
:101D60000F44A2FB07273F09BF009AE700225A60F1
:101D70004EF82720686000225A659A65DA65E3E725
:101D80000120704707040240F8FBFDBFCDCCCCCC4E
:101D90000004024000080240800802403F82001018
:101DA00040090240F8FFFDBF000002401C0802404D
:101DB000F0B590F82440012C0BD090F82540012577
:101DC000AC4280F8245006D0002380F82430022052
:101DD000F0BD0220F0BD0468C76CD0F850E00226C8
:101DE000002580F82560C5632668456D26F001064C
:101DF0002660C7F804E015B1866DC76D7760466C44
:101E0000876806F01C0E012606FA0EFE066CC6F860
:101E100004E06360036B102F0BBFA260A160E16060
:101E2000E260BBB1236843F00E032360836C1A6841
:101E3000D2030AD41DB12B6843F480732B6023684E
:101E400043F0010323600020F0BD1A6842F4807261
:101E50001A60EFE7236823F004032360236843F04C
:101E60000A032360E2E700BF00282AD00368426C1F
:101E70001968F0B421F00E01876C066CC56C446DD6
:101E80001960396821F4807139601968076D21F093
:101E90000101196002F01C020123934073606F601E
:101EA00034B12368826DC16D23F480732360516067
:101EB0000023012280F8252080F82430F0BC184649
:101EC00070470120704700BFF8B590F82530022B0D
:101ED00003D00423C3630120F8BD0368876C19682D
:101EE000426C066CC56C446D21F00E0119601968D6
:101EF00021F0010119603B68016D23F480733B60A0
:101F000002F01C02012393407360696034B12368BE
:101F1000826DC16D23F4807323605160836B012255
:101F2000002480F8252080F8244013B198472046EB
:101F3000F8BD1846F8BD00BFF0B4436C066C0568E8
:101F400031682C68042203F01C039A4011420DD022
:101F500067070BD52B689B0603D42B6823F004037B
:101F60002B60036B7260C3B1F0BC184702229A4029
:101F7000114214D0A70712D52B68990606D42B68F6
:101F8000012123F00A032B6080F82510C36A7260D8
:101F9000002280F82420002BE6D1F0BC70470822F4
:101FA0009A400A42F9D02207F7D52968446B0122EA
:101FB00021F00E0102FA03F3002729607360C26367
:101FC00080F8247080F82520002CE6D02346F0BC51
:101FD000184700BF8C460968002900F0FE802DE9F3
:101FE000F04FDFF81482DFF814E283B0002588E0B8
:101FF0004FEA45090322D0F800B002FA09F2D243B1
:1020000004F003060BEA020B06FA09F60AF1FF3A9E
:1020100046EA0B06BAF1010F066040F2A780C668D7
:10202000DCF80830324003FA09F31343C360E300DD
:1020300063D5D8F8603043F00103C8F86030D8F8B1
:10204000603025F0030606F1804603F0010306F533
:102050008036019305F00303019AD6F808909B009F
:102060000F229A40B0F1904F29EA020A00F09580C1
:102070005A4A904200F09380594A904200F094806E
:10208000584A904200F09580574A904200F096805E
:10209000564A904200F09780554A904200F098804E
:1020A000544A90420CBF4FF007094FF0080909FA53
:1020B00003F343EA0A03B360DEF80030FA43E603B1
:1020C00054BF13403B43CEF80030DEF80430A60383
:1020D00054BF13403B43CEF80430DEF80830E6022C
:1020E00054BF13403B43CEF80830DEF80C30A40256
:1020F00054BF13403B43CEF80C30013531FA05F3A1
:1021000048D00123AB4013EA0107F6D0DCF80440C5
:1021100024F0100ABAF1020F7FF46AAF4FEAD50932
:1021200000EB890905F00702D9F8206092004FF012
:102130000F0B0BFA02FB26EA0B0ADCF8106006FA1A
:1021400002F242EA0A02C9F820204FEA45090322B6
:10215000D0F800A002FA09F2D24304F0030602EA22
:102160000A0A06FA09F646EA0A060660866806EAD8
:10217000020ADCF80C6006FA09F646EA0A068660EE
:10218000D0F804A0C4F300162AEA0303AE401E43AD
:10219000466044E703B0BDE8F08F002389E74FF0C5
:1021A000010909FA03F384E74FF0020909FA03F37E
:1021B0007FE74FF0030909FA03F37AE74FF00409C8
:1021C00009FA03F375E74FF0050909FA03F370E71D
:1021D0004FF0060909FA03F36BE770470004004863
:1021E00000080048000C0048001000480014004897
:1021F00000180048001C0048001002400004014084
:102200000369194214BF0120002070470AB9816296
:1022100070478161704700BF044A5169014200D193
:10222000704708B550610EF051FC08BD0004014034
:1022300070B5044616460D4641B941E09A699106CB
:1022400057D4FEF781FE801B854245D323689A69E7
:1022500052074CD49A69D006F0D5681C24D19A69EB
:102260009106FCD520221021D961DA619A6996077E
:1022700044BF00229A629A69D50703D49A6942F052
:1022800001029A615A6828490A405A60636C202109
:1022900043F004030022636484F8402084F8411072
:1022A000012084F8422070BD9A699206DAD4FEF7C4
:1022B0004BFE801B854232D3002D30D02368CCE703
:1022C00003689A69510712D49A69D206C5D49A69EB
:1022D00092060ED4FEF738FE636C202213430021D1
:1022E000636484F8401084F84120012070BD002010
:1022F00070BD9A69500702D5228D002AF7D120259A
:10230000DD6159680848002201405960012062647B
:1023100084F8402084F8415084F8422070BD636CFA
:1023200020210B43B6E700BF00E800FE70B504466D
:102330000D4616466B1C22682AD1936998072AD449
:102340009369D906F9D593699D06FCD51021202300
:10235000D161D3619369980744BF00239362936965
:10236000D90703D4936943F0010393615368184973
:102370000B405360636C202143F00403002263642C
:1023800084F8402084F84110012084F8422070BD78
:1023900093699B0701D5002070BD9369D90612D4BB
:1023A000FEF7D2FD801B854201D3002DC2D1636CA4
:1023B00020210B43E2E7FEF7C7FD801B8542F6D3E1
:1023C000002DF4D0226893699B06F4D5BEE700BFC8
:1023D00000E800FE70B5044616460D4629B93DE0FA
:1023E000FEF7B2FD801B854241D3226893699806AF
:1023F00041D49369D906F3D5681C24D19369990611
:10240000FCD510212023D161D3619369980744BF83
:10241000002393629369D90703D4936943F00103BE
:102420009361536815490B405360636C202143F05E
:1024300004030022636484F8402084F841100120E2
:1024400084F8422070BD93699B06DAD4FEF77CFDC8
:10245000801B85420BD355B12268CDE70268936992
:102460009B0608D49369DB06C6D4FEF76DFD636C4A
:1024700020210B43DDE7002070BD00BF00E800FE17
:10248000002851D0F8B590F84130044603F0FF021F
:10249000002B40D02368E068242284F8412019688A
:1024A000626821F0010122F0706219601A619A6875
:1024B000012822F400429A60A26831D042F404421A
:1024C00002289A6004BF4FF400625A60596822697A
:1024D000D4F814E0A769E069266A41F0007141F47C
:1024E00000415960DD6842EA0E0242EA07223043A9
:1024F00025F40045DD60DA6018601968002241F0BB
:102500000101202519601046626484F8415022635D
:1025100084F84220F8BD80F840200DF0CFFAB9E7EA
:1025200042F400429A60D1E7012070472DE9F04162
:1025300090F84140202C02D00220BDE8F08190F8B4
:102540004040012CF8D09846012380F840301746CF
:102550000E460446FEF7F8FC054604E0FEF7F4FCE0
:10256000401B19286FD82368986910F40040F5D1F2
:10257000212284F84120102284F842206064A4F8CB
:102580002A80628D676292B2FF2A60636CD95A68B2
:1025900048494948C6F30906314302400A43FF212E
:1025A00021855A6046F0FF77DFF8148147F48037C1
:1025B000638D06999BB22A462046002B66D0FFF712
:1025C000B5FE00284DD1616A226811F8013B936283
:1025D000638D6162013B9BB26385238D618D013BFD
:1025E0009BB289B223850029E2D0002BE0D1069B63
:1025F00001330ED193691906FCD5638D9BB2FF2B75
:1026000013D9536803EA08033B43FF212185536034
:10261000CEE793691B06F0D4FEF796FC069B401BA1
:10262000834210D37BB12268E2E7618D506889B2A2
:10263000CBB246EA034343F0007300EA08000343C9
:1026400021855360B4E7636C202100220B4363644F
:1026500084F8402084F84110012084F84220BDE82D
:10266000F0810120BDE8F081618D134F5868C6F3F9
:10267000090689B246F00242384042F40052CFB215
:1026800042EA0742024321855A608BE7FFF7A2FE28
:102690000028E6D12368094D2021D9615A682A40D3
:1026A0005A6084F8411084F8400084F84200BDE884
:1026B000F08100BF0020FF81009800FC00E800FED0
:1026C000009C00FC2DE9F04190F84140202C02D004
:1026D0000220BDE8F08190F84040012CF8D09846E7
:1026E000012380F8403017460E460446FEF72CFCC6
:1026F000054604E0FEF728FC401B192862D8236831
:10270000986910F40040F5D1222284F8412010226B
:1027100084F842206064A4F82A80628D676292B2D5
:10272000FF2A60636DD95A6848494948C6F30906CB
:10273000314302400A43FF2121855A6046F0FF776A
:10274000DFF8148147F48037638D06999BB22A46DF
:102750002046002B67D0FFF76BFD00284ED1226882
:10276000636A526A1A70618D238D626A013989B277
:102770006185618D013B9BB2013289B22385626222
:102780000029E1D0002BDFD1069B226801330ED156
:1027900093691906FCD5638D9BB2FF2B20D9536832
:1027A00003EA08033B43FF2121855360CCE793698B
:1027B0001B06F0D4FEF7C8FB069B401B834201D3E7
:1027C000002BE2D1636C202100220B43636484F868
:1027D000402084F84110012084F84220BDE8F081B7
:1027E000618D506889B2CBB246EA034343F000736F
:1027F00000EA0800034321855360A5E70120BDE8F6
:10280000F081618D124F5868C6F3090689B246F00F
:102810000242384042F41052CFB242EA0742024329
:1028200021855A608AE7FFF7D5FD0028E6D12368A5
:10283000084D2021D9615A682A405A6084F8411015
:1028400084F8400084F84200BDE8F0810024FF8154
:10285000009800FC00E800FE009C00FC2DE9F84315
:1028600090F84140BDF82450202C02D00220BDE851
:10287000F883089C002C00F09E80002D00F09B80C7
:1028800090F84040012CF1D01E46012380F84030E2
:10289000174688460446FEF757FB814606E0FEF7DA
:1028A00053FBA0EB0900192800F29880236898696F
:1028B00010F40040F3D12121402284F84110C8F3E4
:1028C000090884F842206064F2B265855968DFF82F
:1028D000D0E1089D606348EA024242F0014242F4BE
:1028E000005201EA0E01114365624A4659602046D2
:1028F0000A99FFF71BFD002840F0A480012E0AD0A2
:1029000023680A993A0A9A6220464A46FFF70EFD62
:10291000002840F097802268FFB297620A9B01333B
:1029200077D193691D06FCD5638D9BB2FF2B40F2D6
:102930008F805368584848F0FF7141F4803103405C
:102940000B43FF212185536048F0FF75524E45F43B
:10295000803504E0638D9BB2002B00F087804A46EF
:102960000A992046FFF7E2FC00285FD1616A2268DD
:1029700011F8013B9362638D6162013B9BB26385F9
:10298000238D618D013B9BB289B223850029E1D063
:10299000002BDFD10A9B013313D193691906FCD5B3
:1029A000638D9BB2FF2B27D9536833402B43FF2104
:1029B00021855360CEE74FF4007343640120BDE8E6
:1029C000F88393691B06EBD4FEF7BEFA0A9BA0EBD3
:1029D0000900834202D30BB12268DCE7636C20213B
:1029E00000220B43636484F8402084F841100120E6
:1029F00084F84220BDE8F883618D506889B2CFB277
:102A000048F00073304043EA074303432185536095
:102A1000A0E79369180687D4FEF796FA0A9BA0EB05
:102A20000900834205D323B1226878E70120BDE87D
:102A3000F883636C20210B430022636484F8411007
:102A400084F84220002384F840300120BDE8F88358
:102A5000618D1148536889B21840CDB248F00073B7
:102A600043EA05430343218553606DE74A460A99CB
:102A70002046FFF7AFFC0028D8D12368074D20215E
:102A8000D9615A682A405A6084F8411084F840009D
:102A900084F84200BDE8F883009C00FC00E800FEDA
:102AA000009800FC2DE9F84390F84140BDF824500F
:102AB000202C02D00220BDE8F883089C002C00F0F6
:102AC0008D80002D00F08A8090F84040012CF1D0DC
:102AD0009946012380F8403017460E460446FEF71B
:102AE00033FA804606E0FEF72FFAA0EB080019281B
:102AF00000F292802368986910F40040F3D12221FB
:102B0000402284F84110C6F3090684F8422060642C
:102B10005FFA89F265855968DFF8E4E1089D606332
:102B200046EA024242F0004242F4005201EA0E013B
:102B3000114365624246596020460A99FFF7F6FB49
:102B4000002840F0AE80B9F1010F0AD023680A993D
:102B50003A0A9A6220464246FFF7E8FB002840F016
:102B6000A0802168FFB28F620A9B013340F082800F
:102B70008B695806FCD5638D9BB2FF2B40F2978082
:102B80004B685F485F4A034032431343FF2222856C
:102B90004B6046F0FF755C4F0A9B45F4803501336E
:102BA00022D18B695B07FCD5636A4A6A1A70618D12
:102BB000238D626A013989B26185618D013B9BB2C7
:102BC000013289B22385626209B1002B32D0638D54
:102BD0009BB2002B7BD021680A9BE0E74FF4007387
:102BE00043640120BDE8F8838B695807DCD4FEF705
:102BF000ABF90A9BA0EB080083420DD363B12168B7
:102C0000CDE793691B061CD4FEF79EF90A9BA0EB47
:102C10000800834200D373B9636C202100220B4368
:102C2000636484F8402084F84110012084F8422035
:102C3000BDE8F8830A9B22680133E2D19369190643
:102C4000FCD5638D9BB2FF2B06D953683B402B43C9
:102C5000FF2121855360BAE7618D506889B25FFA20
:102C600081FE46F00073384043EA0E43034321855A
:102C70005360ACE78B695A063FF57DAFFEF764F908
:102C80000A9BA0EB0800834202D30BB121686CE7DA
:102C9000636C20210B430022636484F8411084F8A4
:102CA0004220002384F840300120BDE8F883628D83
:102CB000134D486892B246F00243284043F4105343
:102CC000D5B243EA0543034322854B6061E74246A0
:102CD0000A992046FFF77EFB70B923680B4D20212F
:102CE000D9615A682A405A6084F8411084F840003B
:102CF00084F84200BDE8F8830120BDE8F88300BFF6
:102D0000009800FC0024FF81009C00FC00E800FE0D
:102D10002DE9F04790F84140BDF82450202C03D015
:102D200002252846BDE8F087089C002C7CD0002DA9
:102D30007AD00468A46914F4004AF1D190F84040B4
:102D4000012CEDD098460123044680F84030174608
:102D50000E46FEF7F9F8212384F8413040223D4B1E
:102D600084F84220C4F844A06585E362638D3A4A42
:102D7000089961629BB2FF2B8146626359D8638DCB
:102D80004FF0007A9BB2216834484A682385C6F325
:102D900009065FFA88F346EA034343F00143024021
:102DA00043F4005313434B604A4619212046FFF772
:102DB000BDFA0546002848D1B8F1010F09D02368B3
:102DC0003A0A9A6219214A462046FFF7AFFA0028CC
:102DD0003BD12268FFB2976206E0FEF7B5F8A0EBA0
:102DE0000900192829D82268976917F08007F4D0BC
:102DF000516894F828301A4846EA03430140194EB6
:102E0000606B43EA0A030B43B0424FF0000153608A
:102E100084F8401004D01449884214BFF2210021E4
:102E20001368194311607CE74FF400734364012574
:102E300077E7FF234FF0807AA5E7636C20221343E6
:102E4000636484F8412084F84270002384F84030A1
:102E5000012566E70000FFFFF1390008009800FC3B
:102E6000009C00FC2D3C0008093600082DE9F047C5
:102E700090F84140BDF82450202C03D0022528466C
:102E8000BDE8F087089C002C00F08180002D7ED0EA
:102E90000468A46914F4004AF0D190F84040012C71
:102EA000ECD098460123044680F8403017460E4681
:102EB000FEF74AF8222384F8413040223F4B84F841
:102EC0004220C4F844A06585E362638D3C4A0899BA
:102ED00061629BB2FF2B814662635DD8638D4FF0C8
:102EE000007A9BB2216837484A682385C6F30906F1
:102EF0005FFA88F346EA034343F00043024043F499
:102F0000005313434B604A4619212046FFF70EFA3F
:102F1000054600284CD1B8F1010F09D023683A0AC0
:102F20009A6219214A462046FFF700FA00283FD14D
:102F30002268FFB2976206E0FEF706F8A0EB0900F0
:102F400019282DD82268976917F04007F4D05168E6
:102F500094F828301B4846F0004646F410560140CD
:102F600046EA0343606B184E43EA0A030B43B04240
:102F70004FF00001536084F8401004D01349884298
:102F800014BFF421002113681943116077E74FF44F
:102F900000734364012572E7FF234FF0807AA1E7B5
:102FA000636C20221343636484F8412084F84270E8
:102FB000002384F84030012561E700BF0000FFFFD7
:102FC000F1390008009800FC2D3C00080936000883
:102FD000036810B4446B99691A681CB123465DF804
:102FE000044B18475DF8044B704700BF704700BFA3
:102FF000704700BF704700BF704700BF704700BFF9
:10300000F8B50468C368A169A269A668E768120CEC
:10301000022BC1F3004102F0FE020DD1C6F30906F6
:1030200082EAD61212F0060310D1826C0132826459
:10303000826C022A16D0F8BD2368002623F0B8035C
:10304000236080F84060FFF7D9FFF8BD23680026B1
:1030500023F0B803236007F0FE0280F84060FFF71A
:10306000CDFFF8BD082783643246E76180F8403021
:10307000FFF7C4FFF8BD00BF704700BF704700BF37
:10308000704700BF704700BF704700BF70B504466F
:10309000404A94F84130002084F84200E2626085A2
:1030A000626C283B1143022B61643DD894F84110B7
:1030B00094F841502368384E1A6801F028012829F5
:1030C00005F0280514BF6FF0F6016FF04601282DBA
:1030D00018BF6FF0F6010A4028211A6084F84110E9
:1030E000666320631A6812F480420FD01A68A06BDE
:1030F00022F480421A6040B1284B8363002384F895
:103100004030FEF7E1FE002836D170BD196811F499
:1031100000411DD194F84130602B32D084F840102A
:103120002046FFF7AFFF70BD236894F8412094F864
:1031300041201A6822F0FE021A6094F84120602AA9
:103140001CBF202284F84120002222636263C9E769
:103150001968E06B21F4004119600028D5D00F4BAD
:10316000836384F84020FEF7AFFE0028CDD0E06BEB
:10317000BDE87040836B1847A06BBDE87040836B5F
:103180001847202384F8401084F841302046FFF788
:103190007BFF70BD0000FFFFF9320008C93700084F
:1031A0000368202270B51D68DA610822DA6190F8A0
:1031B000412090F841204E4E0446186820F0FE0051
:1031C0001860586840F4004058605A6832405A60AD
:1031D0009A69920744BF00229A629A69D60703D47B
:1031E0009A6942F001029A61680430D5A26B1AB163
:1031F0001268526892B2628511F0040607D0626AC2
:103200005B6A1370636A228D013363627ABB638DDC
:103210009BB21BB1636C43F0040363640025256318
:1032200084F84250636C656343BBE26A31498A4269
:1032300013D194F8412084F84030222A4FF0200224
:1032400084F84120204650D0FFF7D4FE70BD2A04F8
:10325000D2D5E26B002ACBD1CEE72022E16284F8FE
:10326000403084F841202046FFF706FF70BD638D93
:10327000013B013A9BB222856385C8E7616C204619
:10328000FFF704FF94F84130282BDFD1194AE2629E
:1032900020232563656384F8413084F8425096B159
:1032A0002268636A526A1A70636A228D013363620C
:1032B0004AB1638D013B9BB26385636C013A43F075
:1032C000040322856364236894F8412094F8412024
:1032D0001A68102522F0FE0200211A602046DD61E6
:1032E00084F84010FFF7C8FE70BDFFF785FE70BD83
:1032F00000E800FE0000FFFFF8B590F84030C76A14
:10330000012B00F0D98016460123CA0604460D465B
:1033100080F8403048D4680740F18D80710740F153
:103320008A80638D9BB26BB12268636A526A1A709D
:10333000638D616A228D013B9BB20131013A638545
:1033400061622285638D9BB22BBB17F5803F22D033
:1033500084F8423094F84120292A00F0098194F839
:1033600041202A2A17D12821222284F841102263E1
:1033700094F84120216802F028020868282A14BF26
:103380006FF0F4026FF0440202400A60204684F8B5
:103390004030FFF731FEAA0602D5B30600F18E8059
:1033A000002084F84000F8BDF306B4D5438D9BB2ED
:1033B000002B40F0888090F84120282A00F0A0805F
:1033C00094F84130292B23684FF01002DA61E2D1E2
:1033D00017F5803FDFD09A69920744BF00229A62B6
:1033E0009A69D70703D49A6942F001029A610022D0
:1033F00084F8422094F84110292900F0EB8094F8D9
:1034000041102A29C7D12820222184F841002163B4
:1034100094F84110186801F02801282914BF6FF0B2
:10342000F4016FF0440101401960204684F8402007
:10343000FFF7E2FDAFE72A070FD533070DD594F864
:10344000413003F02803282B00F08E8022680821E9
:103450000023D16184F840309DE7A8079BD5B107D0
:1034600099D5638D9BB2002B3CD137F0807792D1F8
:1034700084F8427094F84130292B00F0928094F83F
:1034800041302A2B87D12822222384F8412023632C
:1034900094F84130226803F02803282B116814BFE8
:1034A0006FF0F4036FF044030B401360204684F880
:1034B0004070FFF7A1FD6EE70220F8BD29462046C7
:1034C000FFF76EFE6CE703681022DA61436C43F08D
:1034D0000403436437F080737FF45DAF416CFFF702
:1034E000D5FD58E7616A236811F8012B9A62638D54
:1034F000228D6162013B9BB2013A638522854AE7D6
:10350000B7F1007F7FF45CAF3E49C16220226907BA
:103510000363436380F8412080F8423012D502688B
:10352000436A526A1A70436A028D013343624AB198
:10353000438D013B9BB24385436C013A43F0040346
:1035400002854364236894F8412094F841201A6866
:10355000102722F0FE0200211A602046DF6184F865
:103560004010FFF789FD16E72046FFF749FD12E7F7
:103570002821212284F84110226394F841202168F7
:1035800002F028020868282A14BF6FF0F2026FF0D8
:10359000420202400A60204684F84030FFF72AFDCC
:1035A000F9E62822212384F84120236394F841304E
:1035B000226803F02803282B116814BF6FF0F20370
:1035C0006FF042030B401360204684F84070FFF711
:1035D00011FDE0E62820212184F84100216394F8C0
:1035E0004110186801F02801282914BF6FF0F2017A
:1035F0006FF0420101401960204684F84020FFF737
:10360000F9FCC8E60000FFFF38B590F84030C56A05
:10361000012B6CD00123044680F84030C80610D43A
:103620000B075CD515075AD594F8413003F02803F1
:10363000282B77D023680822DA61002084F8400024
:1036400038BDD306ECD512F4404F52D0E36B002BBB
:1036500053D01B685B68002B4FD1A36B0BB11B6869
:103660005B6894F84130282B60D094F84130292BC6
:1036700023684FF01002DA61DFD115F5803FDCD00E
:103680009A69910744BF00229A629A69D20703D4CB
:103690009A6942F001029A61002284F8422094F86B
:1036A0004110292976D094F841102A29C5D1282023
:1036B000222184F84100216394F84110186801F038
:1036C0002801282914BF6FF0F4016FF04401014074
:1036D0001960204684F84020FFF78EFCADE788068D
:1036E000ABD59306A9D52046FFF75AFDA5E70220E2
:1036F00038BD23681022DA619FE7A36B1BB11B68FA
:103700005B68002BADD023681022DA61636C43F054
:103710000403636435F080738FD1616C2046FFF73A
:10372000B5FC8AE72046FFF76BFC86E7B5F1007F22
:103730009BD1244BE3622022002348072363636369
:1037400084F8412084F8423012D52268636A526AB4
:103750001A70636A228D013363624AB1638D013B43
:103760009BB26385636C013A43F004032285636472
:10377000236894F8412094F841201A68102522F01B
:10378000FE0200211A602046DD6184F84010FFF738
:1037900073FC52E72820212184F84100216394F82A
:1037A0004110186801F02801282914BF6FF0F201B8
:1037B0006FF0420101401960204684F84020FFF775
:1037C00019FC3AE70000FFFF806A90F84120C16BC6
:1037D00010B5846B0023602AA3638B6302D0FFF7CC
:1037E00051FC10BD202380F84130FFF74DFC10BD87
:1037F000036820222DE9F041DA615A68784D0446C9
:103800007848024000205A6020636063C806E56281
:1038100005D51022DA61626C42F0040262649A6992
:10382000910744BF00229A629A69D20703D49A6929
:1038300042F001029A6194F8411094F841001A682C
:1038400001F02801282900F0280014BF6FF0F601CC
:103850006FF04601282818BF6FF0F6010A401A6081
:10386000626C94F8411060290BD052B994F8413041
:10387000212B77D094F84130222B00F08E80BDE8C8
:10388000F0810020564D616C94F8412084F842008C
:10389000E5626085656C283A2943022A616433D861
:1038A00094F8415094F841101F684F4E05F02805D8
:1038B000282D01F0280114BF6FF0F6026FF04602C8
:1038C000282918BF6FF0F6023A4028211A6084F8C0
:1038D000411020631A68666312F480422AD01A6885
:1038E000A06B22F480421A600028C8D03F4B83634B
:1038F000002384F84030FEF7E7FA0028BFD0A06B21
:10390000BDE8F041836B184794F8412094F84120BA
:103910001A6822F0FE021A6094F84120602A1CBF47
:10392000202284F841200022226362631A6812F484
:103930008042D4D1196811F4004123D01968E06B9A
:1039400021F400411960002899D0284B836384F842
:103950004020FEF7B9FA002891D0E06BBDE8F041B5
:10396000836B1847202384F8413094F8423084F860
:103970004020402B84F8422020461ED0FFF736FB23
:10398000BDE8F08194F84130602B1ED084F84010DF
:103990002046FFF777FBBDE8F081202384F8413013
:1039A00094F8423084F84020402B84F8422020468E
:1039B00007D0FFF71DFBBDE8F081FFF75FFBBDE817
:1039C000F081FFF75DFBBDE8F081202384F8401013
:1039D00084F841302046FFF757FBBDE8F08100BF77
:1039E0000000FFFF00E800FEF9320008C9370008B8
:1039F000F8B590F84030012B68D00123CF06164669
:103A00000D46044680F8403012D46F0726D5700763
:103A100024D52268636A526A1A70638D616A228DA6
:103A2000013B9BB20131013A63856162228526E048
:103A3000D006EAD523681022DA61626C42F00402F3
:103A400062649A69910744BF00229A629A69D20718
:103A500015D49A6942F001029A6110E0A90716D5BF
:103A6000B20714D5616A236811F8012B9A62638D3D
:103A7000228D6162013B9BB2013A63852285AA06D1
:103A800001D5B3063AD4002084F84000F8BD2B06D7
:103A90001ED57706F3D5638D9BB2002B33D0238DD3
:103AA000002B30D122685168608D80B2FF28C1F3AD
:103AB000090172D953685C48034043F0FF7343F433
:103AC00080330B43FF2121855360D8E70220F8BDE6
:103AD0006806D4D57106D2D5638D9BB2002B37D141
:103AE0002268536813F00073C9D1E16A11F5803F71
:103AF00033D1536843F480435360C0E729462046DE
:103B0000FFF776FEBFE72268536813F000731FD1FA
:103B100084F8423094F8411021294FF0200050D011
:103B2000122184F84100216394F84100176863630F
:103B300000F02800282814BF6FF0F4016FF0440152
:103B400039401160204684F84030FFF751FA96E77B
:103B500040212046FFF79AFA91E784F8423094F822
:103B6000411021294FF020004FD0122184F841004C
:103B7000216394F841101068636301F0280128293B
:103B800014BF6FF0F4016FF0440101401160204652
:103B900084F84030FFF72CFA71E7608DE36A80B259
:103BA00013F5803F208525D0E76ADFF87CE0536875
:103BB00003EA0E033B43C0B20B4343EA00435360A6
:103BC0005DE7112184F84100216394F841101068E9
:103BD000636301F02801282918BF6FF0F20108BFC4
:103BE0006FF0420101401160204684F84030FFF739
:103BF000FDF944E753680C4F3B4043F00073C0B2FB
:103C00000B4343EA0040506039E7112184F841003A
:103C1000216394F841101068636301F0280128299A
:103C200018BF6FF0F201DAE7009C00FCF8B590F8DD
:103C30004030012B6DD00123CD06044680F8403082
:103C40003BD40F065BD556065BD523681A6822F075
:103C500040021A60628D92B2002A6FD05D68618D59
:103C600089B2FF29C5F3090500F29180628DE16AEE
:103C700090B211F5803F18BFE76A2085C1B206BF38
:103C800009044FF0007709045A686E4E32402A4307
:103C90003A430A435A60628D121A92B2628594F8CE
:103CA0004120222A1A680CBF42F4004242F48042AA
:103CB0001A60002084F84000F8BDD006C1D5236802
:103CC000626B61481021D961616C824241F004014C
:103CD000616464D05D498A4214BFF422602219688D
:103CE0000A431A609A69910744BF00229A629A694E
:103CF000D207DED49A6942F001029A61D9E74D06F3
:103D000009D48B06D5D59206D3D52046FFF770FD92
:103D1000CFE70220F8BD5006F3D5638D9BB28BBB75
:103D20002268536813F00073C3D1E16A11F5803F34
:103D300037D1536843F480435360BAE75A6812F0AE
:103D400000721FD184F8422094F8411021294FF0CD
:103D5000200046D0122184F84100216394F84100EC
:103D60001968626300F02800282814BF6FF0F4007F
:103D70006FF0440001401960204684F84020FFF7AE
:103D800037F996E740212046FFF780F991E7FF22B7
:103D9000228510464FF47F014FF0807774E7602250
:103DA0009DE784F8423094F8411021294FF020001B
:103DB0002FD0122184F84100216394F8411010683B
:103DC000636301F02801282914BF6FF0F4016FF03C
:103DD000440101401160204684F84030FFF708F9A3
:103DE00067E7112184F84100216394F841001968C4
:103DF000626300F02800282814BF6FF0F2006FF013
:103E0000420001401960204684F84020FFF7EEF898
:103E10004FE7112184F84100216394F841101068A4
:103E2000636301F02801282914BF6FF0F2016FF0DD
:103E3000420101401160204684F84030FFF7D6F877
:103E400037E700BF009C00FC2D3C00080936000845
:103E500090F84130DBB2202B01D00220704702469F
:103E600090F840000128F8D010B41068242482F89B
:103E70004140046824F001040460046824F4805480
:103E800004600468214301600168002441F00101DD
:103E90000160204682F8404082F841305DF8044BD2
:103EA000704700BF90F84130DBB2202B01D00220D8
:103EB0007047024690F840000128F8D010B410680E
:103EC000242482F84140046824F00104046004685A
:103ED00024F4706444EA012101600168002441F087
:103EE00001010160204682F8404082F841305DF8CF
:103EF000044B7047024A136843F4807313607047A1
:103F000000700040074B186800F4C060B0F5806F87
:103F100007D0D3F8803013F4807F14BF4FF40070C3
:103F200000207047007000403B4A10B4136868B925
:103F300003F4C063B3F5806F14D0D2F880305DF81D
:103F4000044B23F48073C2F880307047B0F5007FD3
:103F500031D023F4C06343F48063136000205DF824
:103F6000044B7047D2F880102C4B2D4821F48071FF
:103F7000C2F88010116821F4C06141F40071116031
:103F80001C685169322303FB04F3A0FB03039B0C61
:103F9000480503F1010306D500E023B15169490545
:103FA00003F1FF33F9D41C4B5B695C05D6D50320C4
:103FB0005DF8044B704703F4C063B3F5806F07D01E
:103FC000D2F8803043F48073C2F880300020C6E716
:103FD000D2F88010114B124841F48071C2F8801061
:103FE000116821F4C06141F4007111601C685169CD
:103FF000322303FB04F3A0FB03039B0C480503F1EE
:104000000103D0D501E0002BCDD05169490503F162
:10401000FF33C8D5F7E700BF007000405000002014
:1040200083DE1B432C4A9368D26813F00C0308D03C
:104030000C2B37D0042B33D0082B284818BF002076
:104040007047254A1168090754BFD2F894201268B6
:10405000234954BFC2F30322C2F3031251F82200D2
:10406000FBB10C2B36D11C49CA68CB6802F00302A5
:10407000C3F30313022A03F1010322D0032A17D04A
:10408000B0FBF3F0CA68C2F3062300FB03F0124B47
:10409000DB68C3F3416301335B00B0FBF3F07047AF
:1040A0001048704702F00302012ACAD00020DAE764
:1040B000CA680A48B0FBF3F0C2F3062300FB03F022
:1040C000E5E7CA680748B0FBF3F0C2F3062300FB3C
:1040D00003F0DCE7002070470010024000127A0075
:1040E000F47301080024F400002800F0E7822DE9B1
:1040F000F043994A03689568D668DA0685B00446A5
:1041000005F00C0506F003062ED5002D00F02B81DE
:104110000C2D00F02581A3698F4F002B00F08181C9
:104120003B6843F001033B60FCF70EFF804606E06E
:10413000FCF70AFFA0EB0800022800F2E1813B68CF
:104140009B07F5D53B6843F008033B603B68226A58
:1041500023F0F00313433B607B68E26923F47F4361
:1041600043EA02237B602368D90729D5082D00F094
:1041700098810C2D00F092816368B3F5803F00F0C8
:104180009A81B3F5A02F00F08082734F3A6822F431
:1041900080323A603A6822F480223A60002B40F084
:1041A0008F81FCF7D1FE804606E0FCF7CDFEA0EB48
:1041B0000800642800F2A4813B689803F5D42368C2
:1041C000990700F1A380190719D56369624E002B86
:1041D00000F03D81D6F8943043F00103C6F89430E6
:1041E000FCF7B2FE074605E0FCF7AEFEC01B022856
:1041F00000F28681D6F894309A07F5D523685807DF
:104200003FD5554B9A6DD10000F1EC819A6D42F08B
:1042100080529A659B6D03F080530193019B0127A7
:104220004E4E3368DA0540F15A81A368012B00F045
:104230003982052B00F0D881474ED6F8902022F025
:104240000102C6F89020D6F8902022F00402C6F8A9
:104250009020002B40F0D581FCF776FE41F28838A3
:10426000814606E0FCF770FEA0EB0900404500F235
:104270004781D6F890309907F4D4002F40F0FF81A1
:1042800023689A0618D5636A334E002B00F0CF815D
:10429000D6F8983043F00103C6F89830FCF754FE86
:1042A000074605E0FCF750FEC01B022800F22881FB
:1042B000D6F898309B07F5D5A36A1BB30C2D00F0F8
:1042C000AC80022B00F00E82234B1A6822F0807221
:1042D0001A601A6812F0205F00F0CC811E4CE3686F
:1042E00023F0887323F48033E360FCF72DFE05464A
:1042F00005E0FCF729FE401B022800F2018123683B
:104300009B01F6D4002005B0BDE8F083042D00F039
:10431000B5800C2D00F0AF80E3680F4E002B00F04D
:104320004F81336843F480733360FCF70DFE07461A
:1043300005E0FCF709FEC01B022800F2E1803368AB
:104340005B05F6D57368226923F0FE4343EA0263F6
:104350007360236837E700BF001002400070004020
:10436000012E7FF4D8AEBF4B1B689F0752D4BD4BC4
:10437000276A1A68DFF8EC82100756BFD3F894302A
:104380001B681B0903F0F003BB4280F0BD80D8F826
:104390005830D90000F16381D8F8583043F0805389
:1043A000C8F85830D8F8583003F080530293029B75
:1043B000FFF7A8FDD8F8583023F08053C8F85830DC
:1043C000B0F5007F00F083817F2F00F27381A7F1A9
:1043D0007007B7FA87F77F09A34A136823F00F0322
:1043E0003B431360136803F00F039F4215D19D4BAD
:1043F0001A6842F008021A601A68216A22F0F00274
:104400000A431A605A68E16922F47F4242EA0122B3
:104410005A60C0E0A369002BA9D1012005B0BDE816
:10442000F0833B6823F001033B60FCF78DFD804681
:1044300005E0FCF789FDA0EB0800022860D83B6886
:104440009807F6D42368D9077FF5BAAE8EE6D6F87A
:10445000943023F00103C6F89430FCF775FD07464D
:1044600004E0FCF771FDC01B022849D8D6F894304F
:104470009B07F6D4C2E6022E7FF44EAF794A12684B
:10448000520502D5E268002AC7D0764920694A68F9
:1044900022F0FE4242EA00624A6094E6032E7FF474
:1044A0006BAE704A126892037FF58AAE6268002A8A
:1044B0007FF486AEB1E76B4A136843F48033136030
:1044C000FCF742FD674F804605E0FCF73DFDA0EBA1
:1044D0000800642814D83B689B03F6D56FE6336860
:1044E00043F480733360FCF72FFD80463368DB05AF
:1044F0003FF59BAEFCF728FDA0EB08000228F5D99C
:10450000032005B0BDE8F083D8F8003043F008037D
:10451000C8F80030D8F8003023F0F0033B43C8F867
:104520000030D8F80430E26923F47F4343EA0223E1
:10453000C8F80430D8F85830DA0000F18D80D8F887
:10454000583043F08053C8F85830D8F8583003F04A
:1045500080530393039BFFF7D5FCD8F8583023F022
:104560008053C8F85830B0F5007F00F0A9807F2F45
:1045700000F2A280A7F17007B7FA87F77F093A4ADD
:10458000136823F00F033B431360136803F00F031A
:104590009F427FF442AFFFF745FD324B33499B68A2
:1045A000334AC3F30313CB5C03F01F0320FA03F376
:1045B000002013600CF04AFF00283FF443AF2DE7C2
:1045C000336823F480733360FCF7BEFC074604E0D5
:1045D000FCF7BAFCC01B022892D833685805F7D400
:1045E0002368F0E500271BE61E4BD3F8902042F02D
:1045F0000402C3F89020D3F8902042F00102C3F8DF
:104600009020FCF7A1FC174E814641F2883806E065
:10461000FCF79AFCA0EB090040453FF671AFD6F8D5
:1046200090309807F4D5002F3FF42AAE27E0D6F853
:10463000983023F00103C6F89830FCF785FC074654
:1046400005E0FCF781FCC01B02283FF659AFD6F805
:1046500098309807F5D42FE6FFF754FC83E7FFF76F
:1046600051FCADE60010024000200240DC7301085E
:1046700050000020DA6822F00302DA602EE6394AA0
:10468000936D23F080539365FAE503F18043A3F51E
:104690003C331A6842F480221A601A6842F480326D
:1046A0001A600DE72F4AD2F8903043F00103C2F8A8
:1046B0009030A6E702278FE6022760E701207047C7
:1046C000802F0BD9A12F34BF0127022757E7802F56
:1046D00006D9A12F34BF012702277DE600274EE728
:1046E000002779E61F4D2B6823F080732B60FCF7C1
:1046F0002BFC064605E0FCF727FC801B02283FF652
:10470000FFAE2B689901F6D4A36B676BE66A206B4A
:10471000E16B226C134CDB0643EA07230138334379
:10472000490843EA00130139520843EA4153013A68
:1047300043EA4263EB602B6843F080732B60EB68C5
:1047400043F08073EB60FCF7FFFB054605E0FCF7E8
:10475000FBFB401B02283FF6D3AE23689A01F6D537
:10476000D0E500BF00100240002800F0EC80884A2D
:104770002DE9F843136803F00F038B420CD2136842
:1047800023F00F030B431360136803F00F039942E8
:1047900002D00120BDE8F8830368DF0704460D4618
:1047A0006ED54268032A7ED07A4B022A1B6877D0E6
:1047B000002A40F0B9809A07EBD5FFF733FC764B1F
:1047C000984200F2B58062684FF00009714EB368FC
:1047D00023F003031A43B260FCF7B6FB41F28837BB
:1047E000804606E0FCF7B0FBA0EB0800B84200F200
:1047F0009880B368626803F00C03B3EB820FF1D1C9
:1048000023689F073ED4B9F1800F03D1B26822F02C
:10481000F002B2605E490A6802F00F02954209D2C6
:104820000A6822F00F022A430A600A6802F00F02A7
:104830009542AED1580706D55649E0688A6822F4F9
:10484000E06202438A60190707D5524A21699368DA
:1048500023F4605343EAC1039360FFF7E3FB4D4B3E
:104860004E499B684E4AC3F30313CB5C03F01F030E
:1048700020FA03F313600020BDE8F8430CF0E6BD16
:104880009A07C7D54349A0688A6822F0F00202431C
:104890008A603F490A6802F00F029542C0D3C9E717
:1048A00099038AD475E73B49086886017FF571AFA3
:1048B000C86800F0030001285BD00021354FFE6876
:1048C000F86806F00306C0F30310022E00F10100A1
:1048D00046D0032E3CD1FE683249B1FBF0F1C6F35D
:1048E000062001FB00F12B4E2B4FF068C0F3416016
:1048F00001304000B1FBF0F1B94226D9B16811F0A6
:10490000F00F05D013F002093FF460AFA368E3B9DC
:10491000B36823F0F00343F08003B3604FF08009E5
:1049200054E70320BDE8F8835B057FF532AF44E729
:10493000184A936823F0F00343F0800393606268A1
:104940004FF0800942E7012070474FF000093DE732
:10495000FE68B1FBF0F1C6F3062001FB00F1C2E7EF
:10496000FE681149B1FBF0F1C6F3062001FB00F12E
:10497000B9E70868000754BFD1F8941009680B48DC
:1049800054BFC1F30321C1F3031150F8211095E77F
:10499000002002400010024000B4C404DC7301088F
:1049A0005000002000127A000024F400F473010883
:1049B000014B1868704700BF50000020054B064AA5
:1049C0009B680649C3F302230868D35C03F01F0306
:1049D000D840704700100240EC73010850000020DE
:1049E000054B064A9B680649C3F3C2230868D35C9B
:1049F00003F01F03D840704700100240EC73010819
:104A0000500000200E4B0F2202609A6802F0030251
:104A100042609A6802F0F00282609A6802F4E062F2
:104A2000C2609B68DB0810B403F4E063054C0361CB
:104A300023685DF8044B03F00F030B60704700BF61
:104A40000010024000200240444AF8B5D3689B079A
:104A500007D0D368026803F0030393420CD001200F
:104A6000F8BD0368022B43D0032B4DD0012BF6D1A8
:104A700012689707F3D53EE0002BF0D0374C23683F
:104A800023F0806323600F460646FCF75DFA054677
:104A900004E0FCF759FA401B022833D823681A01B6
:104AA000F7D4002F37D1F368B56820692C497268B4
:104AB000DB0643EA052301400B43013A43EA0213B4
:104AC0002361264C236843F080632360FCF73CFAA3
:104AD000054604E0FCF738FA401B022812D8236888
:104AE0001B01F7D5B2692369134323610020F8BD88
:104AF00012685605B3D5194CE26822F0030213433D
:104B0000E360BBE70320F8BD1468A503F3D4126883
:104B10005403A4D5EFE7012F25690FD0114BB068DE
:104B2000716872692B4043EA00230139520843EA55
:104B30000113013A43EA42632361C2E70A4BB068BA
:104B4000716832692B4043EA00230139520843EA75
:104B50000113013A43EA42532361B2E700100240D5
:104B60000F80FF070F80FFF90F809FFF444AF8B5C1
:104B7000D3689B0707D0D368026803F0030393420E
:104B80000CD00120F8BD0368022B43D0032B4DD07D
:104B9000012BF6D112689707F3D53EE0002BF0D039
:104BA000374C236823F0805323600F460646FCF7FA
:104BB000CBF9054604E0FCF7C7F9401B022833D8BF
:104BC00023689A00F7D4002F37D1F368B56860697D
:104BD0002C497268DB0643EA052301400B43013A86
:104BE00043EA02136361264C236843F08053236039
:104BF000FCF7AAF9054604E0FCF7A6F9401B0228D9
:104C000012D823689B00F7D5B269636913436361C7
:104C10000020F8BD12685605B3D5194CE26822F0A1
:104C200003021343E360BBE70320F8BD1468A50348
:104C3000F3D412685403A4D5EFE7012F65690FD0B0
:104C4000114BB068716872692B4043EA0023013947
:104C5000520843EA0113013A43EA42636361C2E73F
:104C60000A4BB068716832692B4043EA002301396E
:104C7000520843EA0113013A43EA42536361B2E73F
:104C8000001002400F80FF070F80FFF90F809FFF89
:104C90002DE9F047036813F4006682B0044614D08F
:104CA000C16E402900F0158200F23482002900F024
:104CB0000182202940F0328200212030FFF756FF88
:104CC0000646002E00F039822368DF0440F132816D
:104CD000216FB1F5007F00F00B8200F222810029E4
:104CE00000F0ED81B1F5807F40F02381002104F1D7
:104CF0002000FFF73BFF23680746002F40F0E781C5
:104D0000C249206FD1F89C2022F4E06202439D0347
:104D1000C1F89C2000F11281DD0708D5BB49E06B8A
:104D2000D1F8882022F003020243C1F888209807B6
:104D300008D5B649206CD1F8882022F00C02024335
:104D4000C1F88820590708D5B049606CD1F888208F
:104D500022F030020243C1F888201A0708D5AB4977
:104D6000A06CD1F8882022F0C0020243C1F888204C
:104D7000DD0608D5A549E06CD1F8882022F4407200
:104D80000243C1F88820980608D5A049206DD1F8C3
:104D9000882022F440620243C1F88820990508D592
:104DA0009A49606ED1F8882022F440220243C1F86B
:104DB00088205A0508D59549A06ED1F8882022F49C
:104DC00040120243C1F888205D0608D58F49606D06
:104DD000D1F8882022F440520243C1F888201806F6
:104DE00008D58A49A06DD1F8882022F440420243B8
:104DF000C1F88820D90508D58449E06DD1F888200C
:104E000022F440320243C1F88820DA0208D57F49F3
:104E1000206ED1F89C2022F003020243C1F89C20AE
:104E20009D0410D57948616FD0F8882022F0406247
:104E30000A43B1F1006FC0F8882000F02A81B1F177
:104E4000806F00F07D8118031AD5A06FB0F5804FF8
:104E500000F024816D49D1F89C2022F48042C1F8F1
:104E60009C20D1F8882022F040620243B0F1006F0C
:104E7000C1F8882000F05981B0F1806F00F0768190
:104E8000590310D56148E16FD0F8882022F04062C4
:104E90000A43B1F1006FC0F8882000F0F580B1F14D
:104EA000806F00F058815A040DD55848D4F880100E
:104EB000D0F8882022F040520A43B1F1805FC0F858
:104EC000882000F01C81DD0309D55049D4F8840006
:104ED000D1F89C2022F004020243C1F89C209802E1
:104EE00009D54A49D4F88800D1F89C2022F018024C
:104EF0000243C1F89C20590200F19480DB010CD5DB
:104F0000424AD4F89010D2F89C3023F440130B435B
:104F1000B1F5001FC2F89C307CD0304602B0BDE82D
:104F2000F087B1F5407F00F0FB80B1F5806F00F0B5
:104F3000F780012637469D037FF5EEAE334B9A6D21
:104F4000D00056D54FF00008314D2B6843F48073E4
:104F50002B60FBF7F9FF814606E0FBF7F5FFA0EBBE
:104F60000900022800F285802B68D905F5D5002FAD
:104F700040F00981254AD4F89410D2F8903013F407
:104F8000407329D08B4200F0FC80D2F89030D2F8E8
:104F9000900040F48030C2F89000D2F8900023F4E2
:104FA000407320F48030C2F89000C2F89030DA07E5
:104FB00012D5FBF7C9FF154D824641F2883905E04D
:104FC000FBF7C2FFA0EB0A00484552D8D5F8903055
:104FD0009B07F5D5D4F894100C4AD2F8903023F4FE
:104FE00040730B43C2F89030B8F1000F46D12368EC
:104FF00092E69A6D42F080529A659B6D03F0805361
:105000000193019B4FF001089EE700BF0010024092
:1050100000700040D368304643F48013D36002B080
:10502000BDE8F0875A4D2B6823F080532B60FBF7C7
:105030008BFF804605E0FBF787FFA0EB0800022806
:1050400070D82B689A00F6D4002F73D1D5F89C3015
:10505000D4F88C2023F440331343C5F89C3002214C
:1050600004F12000FFF782FD002840F08E802368C5
:1050700044E703263746B8F1000FB8D0444A936D91
:1050800023F080539365B2E7C26842F48012C26095
:1050900009E7C26842F48012C260D4E63C4AD2F802
:1050A0009C1041F48041C2F89C10D16841F48031D9
:1050B000D160E5E60430FFF7C7FC064601E6201D97
:1050C000FFF7C2FC07462368002F3FF419AE3E46A7
:1050D00031E72F48C26842F48032C2602C48D0F8D1
:1050E0009C2022F0E0021143C0F89C100026ECE561
:1050F0002749CA6842F48032CA603746FDE502217A
:10510000201DFFF7A1FC2368074600283FF4DBAE13
:105110000646D8E66029E1D08029DFD00126D4E513
:105120003746EAE523680326E8E6CA6842F48012B7
:10513000CA60A5E63E462368E0E6E16E2368CDE757
:105140000121201DFFF780FC2368074600283FF45B
:105150007AAE064677E60121201DFFF775FC23682D
:10516000074600283FF49FAE06469CE60121201D1D
:10517000FFF76AFC2368074600283FF481AE064625
:105180007EE60B4613E73E462EE706462368B5E665
:105190000010024000286ED0F8B590F82130044687
:1051A00003F0FF02002B4FD0236853220220CA21B4
:1051B00084F8210059625A62DA6855062CD599683C
:1051C00062682769A669A068E56821F4E00121F01A
:1051D0004001996099683A4332430A439A601D61DD
:1051E0001A6942EA00421A61DA6822F08002DA6043
:1051F0009A6892062DD5D96C6069E26921F00301A5
:10520000D964D96C02430A43FF250121DA640020E6
:105210005D6284F82110F8BD4FF0FF32DA60FBF7D1
:1052200093FE05462368DA685006C8D4FBF78CFE67
:10523000401BB0F57A7FF5D92268FF210423516223
:10524000012084F82130F8BD80F820200BF0E8FF21
:10525000AAE7DA6822F0A002DA60FBF775FE0546DD
:105260002368DA689106C6D4FBF76EFE401BB0F5E2
:105270007A7FF5D9E0E70120704700BF2DE9F04FB4
:1052800087B005468846FBF75FFE0821064628687A
:1052900002F0BAFC044618B1204607B0BDE8F08F12
:1052A000A96C2868090402F0A3FD04460028F3D184
:1052B0004FF0FF310820022201230091019069463E
:1052C00030272868049403920593029702F088FC23
:1052D000286802F047FE04460028DDD18346824656
:1052E000814640F22A5704E0FBF72EFE801B013076
:1052F00018D02868436B3B42436B0ED11B03F3D499
:10530000B9F1000FF0D102F057FC8246286802F094
:1053100053FC4FF001098346E6E7190705D5082439
:105320008463B9E74FF00044B6E7436B9A0702D5B0
:1053300002248463B0E7436B9B0602D52024846378
:10534000AAE79BFA8BF29AFA8AF30249816388E80A
:105350000C00A1E73A0F0018026EF0B40346970F55
:10536000C2F38366C2F30165C2F30744C2F30720A8
:10537000D2B20F704E708D70CC7008714A715A6E37
:10538000150DC2F30344CD8000200C72C2F3C03768
:10539000C2F38036C2F34035C2F300344F728E72CE
:1053A000CD720C734873D86B00286CD1986E40F6A0
:1053B000FC7404EA820242EA90720A61C0F3425528
:1053C000C0F38244C0F3C232C0F3C267C0F30266C6
:1053D0000F754E758D75CC750A760A690C7E04F0D2
:1053E000070402340132A240DA640D7A012405F088
:1053F0000F05AC40650A02FB05F24FF400751C6511
:105400005A659D65C0F38034C0F3C61200F07F007A
:105410004C768A76C876DB6EDD0FC3F34174C3F336
:1054200082620D77C3F383574C77C3F340568A7774
:10543000C3F30045C3F3C034C3F380320020CF77F9
:1054400081F82060C3F3403781F82100C3F30036B0
:1054500081F8225081F82340C3F3812581F824206C
:10546000C3F301240122C3F3460381F8257081F8B8
:10547000266081F8275081F8284081F8293081F88A
:105480002A20F0BC704701280CD01A680E4991639D
:105490009A6B012142F080529A63084683F83410D7
:1054A000F0BC7047986E120402F47C1242EA10427B
:1054B0000A610A69013292024FF40074DA645A6593
:1054C0001C659C659EE700BFFF0FE01FF0B5C36B36
:1054D000032293428BB0044680F834200E4615D048
:1054E000B1F5004F12D0B1F5804F30D000293DD03A
:1054F000836B43F000638363A56B75B123683A4AFD
:105500009A63012084F834000BB0F0BDA36B43F024
:105510008053A363A56B002DF0D1226963690893C2
:1055200007920AAB13E907006768A3680696266826
:1055300005938DE80700049704AB0ECB304602F0CC
:1055400021FB0123284684F834300BB0F0BD002342
:10555000194600680493059302F03EFB80011ED5B6
:105560004FF40060A36B1843A063C5E70068049183
:10557000059102F031FB820105D54FF40060A16B6B
:105580000843A063B8E704A92046FFF777FE002888
:10559000F5D1059BDB030ED44FF08060EFE704A943
:1055A0002046FFF76BFE0028DCD1059B59030ED483
:1055B0004FF08060D6E7A16C2068090402F018FC67
:1055C0000028DCD10146206802F08AFCD7E7A16CF4
:1055D0002068090402F00CFC0028C3D102212068D5
:1055E00002F07EFCBEE700BFFF0FE01F2DE9F04197
:1055F00098B0F8B190F83430044603F0FF02002B65
:1056000036D0A2692568002303203C21012A84F8B2
:1056100034000793089309930A930B912CD00AAB9B
:1056200093E807008DE8070007AB28460ECB02F091
:10563000A9FA20B10125284618B0BDE8F0812068FC
:1056400002F0BEFA05460028F4D10220FBF782FCE6
:105650000695FBF779FC8046206802F059FB054669
:1056600078B1012384F83430A36B1D43A563E1E7CF
:1056700002770BF001FEC4E72B6843F004032B60B4
:10568000CDE7206802F072FBB0FA80F04009206498
:105690002946206802F0ACFB10B14FF08055E0E7DE
:1056A000069B4FF6FE77BB4200F20181844E2068D4
:1056B000002102F09DFB314605460028D1D120682B
:1056C00002F0D8FB01460028E7D1206802F084FAF6
:1056D000069B013306930028069B01DBBB42E6D9FB
:1056E000069A4FF6FE739A4202D94FF08075B8E7DA
:1056F000460005D5A36901229342E26300F095803C
:1057000020680123ADF8163002F062FA40B94FF07C
:105710008060012384F83430A36B0343A36389E7DB
:10572000E36B032B0FD10421206802F055FA000D22
:1057300060640DA92046FFF70FFE0346002846D0FF
:105740004FF08050E5E7206802F04EFC0028E0D1E1
:105750000146206802F040FA04212067206802F028
:105760003BFA08216067206802F036FA0C21A06736
:10577000206802F031FAE36BE067032BD3D00DF120
:105780001601206802F0AEFC0028C2D1E36B032BA7
:10579000C9D0BDF81610A1642068090402F064FCA9
:1057A0000028B6D10146206802F016FA04212066CE
:1057B000206802F011FA08216066206802F00CFAF5
:1057C0000C21A066206802F007FAE066ABE7A26C45
:1057D0002068120402F05AFA00289AD1E1682046A3
:1057E000FFF774FE054600287FF424AFA369012B60
:1057F00009D0002301222846A363236384F83420C0
:1058000018B0BDE8F081E36DB3F5007F02D0E36B23
:10581000012BEED12268536843F480135360204675
:1058200000F052F80028E4D004E7C5017FF568AF26
:1058300023681A684FF4007142F00302E1651846CC
:105840001A6002F0E5FC054630B10AE7FBF77CFB85
:10585000A0EB080001302FD023685A6B5001F5D51A
:105860004FF080629A635B6BD9027FF516AF01201F
:1058700000F028F82068036843F00203036006E0A4
:10588000FBF762FBA0EB0800013015D02068436BEA
:105890009A01F5D54FF000738363436BDB023FF54C
:1058A00024AF13224FF0FF330260836329E7069B86
:1058B000BB423FF61AAF23E74FF00045D1E600BFE9
:1058C000000010C1704700BF2DE9F047044696B0B4
:1058D00040252A46002106A80FF0E3FDFBF734FB24
:1058E000E36D2BB94FF08066304616B0BDE8F08707
:1058F000B3F5007F04D00026304616B0BDE8F0872F
:10590000A769012FF7D1804620680023C36229468A
:1059100002F07AF906460028E6D14FF0FF3E6022F9
:105920000223049069462068CDF800E002920393B8
:105930000195059702F054F93049206802F026FCE1
:1059400006460028D0D106AD40F22A5A2068436BA3
:1059500013EA0A0F436B24D11F0415D52F1D05F13F
:10596000240900E0206802F027F907F8040C020A75
:10597000030C000E07F8032C07F8023C07F8010C93
:1059800004374F45EED12035FBF7DEFAA0EB0800D7
:105990000130DBD14FF000460123A66384F8343098
:1059A000A2E71D0705D4436B990705D50226866338
:1059B0009AE70823836397E7436B9A0602D520266C
:1059C000866391E79DF825300D4A82639B0702D4D8
:1059D0004FF0805688E70120FFF774FF4FF4007105
:1059E000206802F011F9064600283FF47DAF01233C
:1059F00084F83430A36B0343A36375E701FFFF8092
:105A00003A0F0018036841685A68B1F5827F22F0A6
:105A1000E0025A6013D0826AB2F5005F07D11A68BB
:105A200022F400521A601A6842F400521A600122ED
:105A3000002380F85D2080F85C3003207047826886
:105A4000B2F5004F02D0B2F5806FE4D11A6822F0AF
:105A500040021A60DFE700BF70B504460D461646E7
:105A6000691C206811D1836813F4C05FFBD183687F
:105A70001B0604D583681B06F9D400E0037B83680A
:105A800013F4C06FFAD1002070BD836813F4C05FB7
:105A900023D0FBF759FA801B8542E1D8236861685F
:105AA0005A68B1F5827F22F0E0025A602ED0A26AD5
:105AB000B2F5005F21D0012384F85D30236E00220F
:105AC00043F02003236684F85C20032070BDFBF7BD
:105AD0003BFA801B8542E1D9206883681A06F6D418
