:020000040800F2
:1000000000000A20290F010845F6000847F60008FD
:1000100049F600084BF600084DF600080000000005
:1000200000000000000000000000000071AE0008A9
:100030004FF600080000000011AF000875AF00087F
:10004000790F0108790F0108790F0108790F01086C
:10005000790F0108790F010851F600085BF60008D6
:1000600065F600086FF60008790F010879F60008B8
:10007000790F0108790F0108790F0108790F01083C
:10008000790F0108790F0108790F0108790F01082C
:10009000790F0108790F0108790F010889F6000826
:1000A000790F0108790F0108790F0108790F01080C
:1000B000A1F60008B1F60008C1F60008D1F6000864
:1000C000790F0108E1F60008790F0108790F01089E
:1000D000F1F6000801F70008790F010811F7000890
:1000E00021F70008790F0108790F0108790F01083D
:1000F000790F0108790F0108790F0108000000004D
:10010000790F0108790F0108790F0108790F0108AB
:10011000790F0108790F010855F70008790F0108D8
:10012000790F0108790F0108790F0108790F01088B
:10013000790F0108790F0108790F0108790F01087B
:100140006DF70008790F0108790F0108790F010890
:10015000790F0108790F0108790F0108790F01085B
:100160007DF70008790F0108790F0108790F010860
:10017000790F0108790F010800000000000000005D
:10018000790F0108790F0108790F0108790F01082B
:10019000790F0108790F010800000000000000003D
:1001A0000000000000000000790F0108790F01082D
:0C01B000790F0108790F0108790F010890
:1001C00010B5054C237833B9044B13B10448AFF391
:1001D00000800123237010BDC0000020000000003B
:1001E000A02D010808B5034B1BB103490348AFF329
:1001F000008008BD00000000C4000020A02D010800
:1002000081F0004102E000BF83F0004330B54FEAC7
:1002100041044FEA430594EA050F08BF90EA020F34
:100220001FBF54EA000C55EA020C7FEA645C7FEAC7
:10023000655C00F0E2804FEA5454D4EB5555B8BFEA
:100240006D420CDD2C4480EA020281EA030382EA5B
:10025000000083EA010180EA020281EA0303362DED
:1002600088BF30BD11F0004F4FEA01314FF4801CC0
:100270004CEA113102D0404261EB410113F0004FD2
:100280004FEA03334CEA133302D0524263EB430389
:1002900094EA050F00F0A780A4F10104D5F1200E27
:1002A0000DDB02FA0EFC22FA05F2801841F1000182
:1002B00003FA0EF2801843FA05F359410EE0A5F156
:1002C00020050EF1200E012A03FA0EFC28BF4CF087
:1002D000020C43FA05F3C01851EBE37101F000453D
:1002E00007D54FF0000EDCF1000C7EEB00006EEB4A
:1002F0000101B1F5801F1BD3B1F5001F0CD34908D4
:100300005FEA30004FEA3C0C04F101044FEA44522A
:1003100012F5800F80F09A80BCF1004F08BF5FEAB1
:10032000500C50F1000041EB045141EA050130BD91
:100330005FEA4C0C404141EB010111F4801FA4F134
:100340000104E9D191F0000F04BF01460020B1FA89
:1003500081F308BF2033A3F10B03B3F120020CDAC1
:100360000C3208DD02F1140CC2F10C0201FA0CF09F
:1003700021FA02F10CE002F11402D8BFC2F1200C04
:1003800001FA02F120FA0CFCDCBF41EA0C019040BA
:10039000E41AA2BF01EB0451294330BD6FEA040403
:1003A0001F3C1CDA0C340EDC04F11404C4F12002EE
:1003B00020FA04F001FA02F340EA030021FA04F300
:1003C00045EA030130BDC4F10C04C4F1200220FA57
:1003D00002F001FA04F340EA0300294630BD21FA95
:1003E00004F0294630BD94F0000F83F4801306BF5B
:1003F00081F480110134013D4EE77FEA645C18BF4F
:100400007FEA655C29D094EA050F08BF90EA020FE5
:1004100005D054EA000C04BF1946104630BD91EADD
:10042000030F1EBF0021002030BD5FEA545C05D1E0
:100430004000494128BF41F0004130BD14F580041F
:100440003CBF01F5801130BD01F0004545F0FE4193
:1004500041F470014FF0000030BD7FEA645C1ABFC8
:10046000194610467FEA655C1CBF0B46024650EAFF
:10047000013406BF52EA033591EA030F41F400212B
:1004800030BD00BF90F0000F04BF0021704730B5B1
:100490004FF4806404F132044FF000054FF0000186
:1004A00050E700BF90F0000F04BF0021704730B547
:1004B0004FF4806404F1320410F0004548BF40421C
:1004C0004FF000013EE700BF42004FEAE2014FEA71
:1004D00031014FEA02701FBF12F07F4393F07F4F4C
:1004E00081F06051704792F0000F14BF93F07F4F7E
:1004F000704730B54FF4607401F0004521F00041C1
:1005000020E700BF50EA010208BF704730B54FF046
:1005100000050AE050EA010208BF704730B511F04B
:10052000004502D5404261EB41014FF4806404F183
:1005300032045FEA915C3FF4DCAE4FF003025FEA05
:10054000DC0C18BF03325FEADC0C18BF033202EB8D
:10055000DC02C2F1200300FA03FC20FA02F001FAE7
:1005600003FE40EA0E0021FA02F11444C1E600BF86
:1005700070B54FF0FF0C4CF4E06C1CEA11541DBF39
:100580001CEA135594EA0C0F95EA0C0F00F0DEF804
:100590002C4481EA030621EA4C5123EA4C5350EAE9
:1005A000013518BF52EA033541F4801143F480133A
:1005B00038D0A0FB02CE4FF00005E1FB02E506F0CB
:1005C0000042E0FB03E54FF00006E1FB03569CF020
:1005D000000F18BF4EF0010EA4F1FF04B6F5007F26
:1005E00064F5407404D25FEA4E0E6D4146EB060698
:1005F00042EAC62141EA55514FEAC52040EA5E5021
:100600004FEACE2EB4F1FD0C88BFBCF5E06F1ED8CA
:10061000BEF1004F08BF5FEA500E50F1000041EB01
:10062000045170BD06F0004646EA010140EA0200AE
:1006300081EA0301B4EB5C04C2BFD4EB0C0541EAD0
:10064000045170BD41F480114FF0000E013C00F3E5
:10065000AB8014F1360FDEBF002001F0004170BD09
:10066000C4F10004203C35DA0C341BDC04F1140422
:10067000C4F1200500FA05F320FA04F001FA05F2AE
:1006800040EA020001F0004221F0004110EBD3707B
:1006900021FA04F642EB06015EEA430E08BF20EAA7
:1006A000D37070BDC4F10C04C4F1200500FA04F34A
:1006B00020FA05F001FA04F240EA020001F00041DC
:1006C00010EBD37041F100015EEA430E08BF20EA4F
:1006D000D37070BDC4F1200500FA05F24EEA020E97
:1006E00020FA04F301FA05F243EA020321FA04F0C6
:1006F00001F0004121FA04F220EA020000EBD3707D
:100700005EEA430E08BF20EAD37070BD94F0000F7C
:100710000FD101F00046400041EB010111F4801FB0
:1007200008BF013CF7D041EA060195F0000F18BF61
:10073000704703F00046520043EB030313F4801F9D
:1007400008BF013DF7D043EA0603704794EA0C0F57
:100750000CEA135518BF95EA0C0F0CD050EA41066D
:1007600018BF52EA4306D1D181EA030101F00041EA
:100770004FF0000070BD50EA410606BF1046194612
:1007800052EA430619D094EA0C0F02D150EA01361E
:1007900013D195EA0C0F05D152EA03361CBF10465F
:1007A00019460AD181EA030101F0004141F0FE41FE
:1007B00041F470014FF0000070BD41F0FE4141F482
:1007C000780170BD70B54FF0FF0C4CF4E06C1CEA82
:1007D00011541DBF1CEA135594EA0C0F95EA0C0F37
:1007E00000F0A7F8A4EB050481EA030E52EA0335F2
:1007F0004FEA013100F088804FEA03334FF0805513
:1008000045EA131343EA12634FEA022245EA11153F
:1008100045EA10654FEA00260EF000419D4208BFF0
:10082000964244F1FD0404F5407402D25B084FEA9D
:100830003202B61A65EB03055B084FEA32024FF449
:1008400080104FF4002CB6EB020E75EB030E22BFA6
:10085000B61A754640EA0C005B084FEA3202B6EB66
:10086000020E75EB030E22BFB61A754640EA5C0015
:100870005B084FEA3202B6EB020E75EB030E22BFA5
:10088000B61A754640EA9C005B084FEA3202B6EBA6
:10089000020E75EB030E22BFB61A754640EADC0065
:1008A00055EA060E18D04FEA051545EA16754FEAC7
:1008B00006164FEAC30343EA52734FEAC2025FEAE5
:1008C0001C1CC0D111F4801F0BD141EA00014FF074
:1008D00000004FF0004CB6E711F4801F04BF014345
:1008E0000020B4F1FD0C88BFBCF5E06F3FF6AFAE61
:1008F000B5EB030C04BFB6EB020C5FEA500C50F1F1
:10090000000041EB045170BD0EF0004E4EEA113173
:1009100014EB5C04C2BFD4EB0C0541EA045170BD7A
:1009200041F480114FF0000E013C90E645EA060EBE
:100930008DE60CEA135594EA0C0F08BF95EA0C0FEC
:100940003FF43BAF94EA0C0F0AD150EA01347FF434
:1009500034AF95EA0C0F7FF425AF104619462CE70B
:1009600095EA0C0F06D152EA03353FF4FDAE10466E
:10097000194622E750EA410618BF52EA43067FF4BF
:10098000C5AE50EA41047FF40DAF52EA43057FF44F
:10099000EBAE12E74FF0FF3C06E000BF4FF0010C5A
:1009A00002E000BF4FF0010C4DF804CD4FEA410CBE
:1009B0007FEA6C5C4FEA430C18BF7FEA6C5C1BD08B
:1009C00001B050EA410C0CBF52EA430C91EA030F0C
:1009D00002BF90EA020F0020704710F1000F91EA69
:1009E000030F58BF994208BF90422CBFD8176FEA37
:1009F000E37040F0010070474FEA410C7FEA6C5C05
:100A000002D150EA013C07D14FEA430C7FEA6C5C0B
:100A1000D6D152EA033CD3D05DF8040B704700BF37
:100A20008446104662468C461946634600E000BF85
:100A300001B5FFF7B7FF002848BF10F1000F01BD57
:100A40004DF808EDFFF7F4FF0CBF012000205DF822
:100A500008FB00BF4DF808EDFFF7EAFF34BF0120A7
:100A600000205DF808FB00BF4DF808EDFFF7E0FF40
:100A700094BF012000205DF808FB00BF4DF808ED91
:100A8000FFF7CEFF94BF012000205DF808FB00BFF8
:100A90004DF808EDFFF7C4FF34BF012000205DF8DA
:100AA00008FB00BF4FEA410C7FEA6C5C02D150EAC0
:100AB000013C0AD14FEA430C7FEA6C5C02D152EA56
:100AC000033C02D14FF0000070474FF00100704727
:100AD0004FEA410212F5001215D211D56FF4787366
:100AE000B3EB625212D94FEAC12343F0004343EA09
:100AF000505311F0004F23FA02F018BF40427047E4
:100B00004FF00000704750EA013005D111F000406D
:100B100008BF6FF0004070474FF00000704700BF03
:100B20004A0011D212F5001211D20DD56FF478736C
:100B3000B3EB62520ED44FEAC12343F0004343EAC1
:100B4000505323FA02F070474FF00000704750EA0C
:100B5000013002D14FF0FF3070474FF00000704776
:100B60004FEA4102B2F1E04324BFB3F5001CDCF1CF
:100B7000FE5C0DD901F0004C4FEAC0024CEA507007
:100B8000B2F1004F40EB830008BF20F00100704736
:100B900011F0804F21D113F13872BCBF01F0004039
:100BA000704741F480114FEA5252C2F11802C2F16B
:100BB000200C10FA0CF320FA02F018BF40F00100EC
:100BC0004FEAC1234FEAD32303FA0CFC40EA0C009E
:100BD00023FA02F34FEA4303CCE77FEA625307D1DB
:100BE00050EA01331EBF4FF0FE4040F44000704712
:100BF00001F0004040F0FE4040F40000704700BFAC
:100C000053B94AB9002908BF00281CBF4FF0FF3173
:100C10004FF0FF3000F07AB9ADF1080C6DE904CE69
:100C200000F006F8DDF804E0DDE9022304B07047C7
:100C30002DE9F0478C460D460446089E002B51D105
:100C40008A4217466DD9B2FA82FEBEF1000F0BD070
:100C5000CEF1200C01FA0EF520FA0CFC02FA0EF788
:100C60004CEA050C00FA0EF44FEA174A250CBCFBBF
:100C7000FAF81FFA87F90AFB18CC45EA0C4508FB7D
:100C800009F3AB420AD9ED1908F1FF3280F0238154
:100C9000AB4240F22081A8F102083D44ED1AA4B213
:100CA000B5FBFAF00AFB105544EA054400FB09F9CC
:100CB000A14509D9E41900F1FF3380F00A81A1456B
:100CC00040F2078102383C44A4EB090440EA0840A2
:100CD0000021002E61D024FA0EF4002334607360EA
:100CE000BDE8F0878B4207D9002E54D0002186E85A
:100CF00021000846BDE8F087B3FA83F1002940F0EF
:100D00008E80AB4202D3824200F2FA80841A65EBF5
:100D100003050120AC46002E3FD086E81010BDE848
:100D2000F08712B90127B7FBF2F7B7FA87FEBEF1D9
:100D3000000F34D1EB1B3A0C1FFA87FC0121B3FBE7
:100D4000F2F8250C02FB183345EA03450CFB08F3C7
:100D5000AB4207D9ED1908F1FF3002D2AB4200F2E5
:100D6000D1808046ED1AA3B2B5FBF2F002FB10551C
:100D700043EA05440CFB00FCA44507D9E41900F143
:100D8000FF3302D2A44500F2B8801846A4EB0C044D
:100D900040EA08409DE731463046BDE8F087CEF195
:100DA000200405FA0EF307FA0EF720FA04F83A0CBD
:100DB00025FA04F448EA0308B4FBF2F14FEA1845B7
:100DC00002FB11441FFA87FC45EA044501FB0CF3C2
:100DD000AB4200FA0EF409D9ED1901F1FF3080F0B1
:100DE0008A80AB4240F2878002393D44EB1A1FFAF9
:100DF00088F5B3FBF2F002FB103345EA034500FB34
:100E00000CF3AB4207D9ED1900F1FF386FD2AB42BA
:100E10006DD902383D44EB1A40EA01418FE7C1F138
:100E2000200722FA07F88B4005FA01F448EA030389
:100E300020FA07FE4FEA134CFD404EEA040EB5FBC4
:100E4000FCF94FEA1E440CFB19551FFA83F844EADB
:100E5000054509FB08F4AC4202FA01F200FA01FA76
:100E600008D9ED1809F1FF3043D2AC4241D9A9F1BC
:100E700002091D442D1B1FFA8EFEB5FBFCF00CFB76
:100E800010554EEA054400FB08F8A04507D9E418C0
:100E900000F1FF3529D2A04527D902381C4440EA89
:100EA0000940A4EB0804A0FB02894C45C6464D4608
:100EB00015D312D056B1BAEB0E0364EB050404FA55
:100EC00007F7CB401F43CC40376074600021BDE87A
:100ED000F0871846F8E69046E0E6C245EAD2B8EB5D
:100EE000020E69EB03050138E4E72846D7E74046E0
:100EF00091E78146BEE7014678E702383C4445E782
:100F0000084608E7A8F102083D442BE7704700BFF8
:100F100010B5032000F09AFC00200EF057FB10B132
:100F20000124204610BD04460EF030FBF9E7000016
:100F3000024A136801331360704700BF6C530020EE
:100F4000014B1868704700BF6C53002038B5044649
:100F5000FFF7F6FF0546B4F1FF3F00D00134FFF77D
:100F6000EFFF401B8442FAD838BD000030B583B093
:100F700000230193002800F0F7800446836D23B31B
:100F800023689A6812F0005F26D001222AB19A687D
:100F900022F0204222F03F029A602268936813F008
:100FA000805F1BD001230BBB936823F0104323F019
:100FB0003F0343F0805393606C4B1B689B096C4A62
:100FC000A2FB03239B0901930DE00CF049F80023D9
:100FD000E36584F85430D3E70022D7E70023E2E743
:100FE000019B013B0193019B002BF9D123689A6877
:100FF00012F0805F00F083800122002A40F081809F
:10100000A26D42F01002A265E26D42F00102E265BB
:1010100001209A6812F0040F75D00121A26D12F020
:10102000100F40F09A80002940F09780A26D22F4C2
:10103000817242F00202A2659B6813F0010F64D036
:1010400001236BB94B4B9B6813F0010F5FD0012359
:1010500033B9636848498A6822F47C1213438B6071
:10106000627E636B43EA4233E2681343A268134330
:1010700094F8202043EA0243012A4AD0A26A22B10E
:1010800002F47072E16A0A4313432168CD683B4A57
:101090002A401343CB6023689A6812F0040F3DD0B6
:1010A00001219A6812F0080F3AD00122C1B9BAB9E9
:1010B000E26C217E42EA813294F8301042EA410229
:1010C000D96821F4804121F006010A43DA6094F8DE
:1010D0003830012B26D02268136923F001031361F5
:1010E0002369012B30D02268136B23F00F031363A5
:1010F000A36D23F0030343F00103A36532E0002254
:101100007BE7002085E7002188E7002399E700239B
:101110009EE7626A013A43EA4243AFE70021C0E733
:101120000022C3E721680B6923F4FF6323F0040363
:10113000E26B256C2A43656C2A43A56C2A43134352
:1011400043F001030B61CBE721680B6B23F00F0326
:10115000E269013A13430B63CAE7A36D43F010033E
:10116000A365012003B030BD0120FBE7480000204B
:10117000632D3E05000004500003045007C0F0FF3B
:10118000F0B482B00022019290F85420012A00F0BD
:1011900035820346012280F854200268926812F0DA
:1011A000040F0ED00122002A40F019824A68052A55
:1011B0000BD8023A032A00F29E80DFE802F0049284
:1011C00095980022EFE70C224A601E684D680C6873
:1011D00030362A0A920002F00C02B05805F01F05C2
:1011E0001F27AF4020EA0700C4F38464AC402043CB
:1011F000B0501A68906810F0040F7FD001249068F6
:1012000010F0080F7CD00120002C34D1002832D1FE
:101210008E68B6F1004F75D00D681432680E8000EC
:1012200000F004001458C5F304550727AF4024EA22
:10123000070406FA05F52C4314501868426922F099
:101240000042426148691C68E268C2F3C102520070
:1012500000FA02F20D69042D69D00E68603454F86A
:101260002570BC48384006F0F8463243104340F041
:10127000004044F825001868826812F0010F00F061
:10128000AA800122B2B90A68CD68D0F8B040C2F392
:10129000120624EA060405F01806AF4DF5402A4070
:1012A000C2F312022243C0F8B020C868AB4A904291
:1012B00000F093800A68AA490A4200F09B81A9497C
:1012C000896801F0E074A848824200F02581A748AF
:1012D000824200F05D81A648824200F06D810020CC
:1012E00082E112224A6070E718224A606DE74FF4EB
:1012F00080724A6069E706224A6066E700247EE75A
:10130000002081E70C681432600E800000F00400B9
:101310001558C4F30454072606FA04F425EA040514
:1013200015501868426942F0004242618AE7206E17
:10133000C0F384650A68C2F3120666BBC2F3846216
:10134000AA422DD01C68606EC0F384650A68C2F39F
:1013500012064EBBC2F38462AA422AD01C68A06E59
:10136000C0F384650A68C2F3120636BBC2F3846216
:10137000AA4227D01C68E06EC0F384650A68C2F3F5
:1013800012061EBBC2F38462AA427FF474AF20F03F
:101390000040E0666FE792FAA2F2B2FA82F2CFE77B
:1013A00020F000402066CDE792FAA2F2B2FA82F273
:1013B000D2E720F000406066D0E792FAA2F2B2FADB
:1013C00082F2D5E720F00040A066D3E792FAA2F2BD
:1013D000B2FA82F2D8E7002254E71C680868C0F32A
:1013E000120696BB820E013202F01F02092A8CBF40
:1013F00000220122002A52D09EBB820E01329206A8
:1014000002F0F842B6BB850E013505F01F07012535
:10141000BD401543C6BB820E013202F01F0202EB33
:10142000420212052A438D681434500E800000F0E9
:1014300004002658C2F304520727974026EA0706FD
:1014400005FA02F23243225034E790FAA0F2B2FADF
:1014500082F2013202F01F02092A8CBF002201220F
:10146000C8E790FAA0F2B2FA82F20132920602F0D4
:10147000F842C7E790FAA0F5B5FA85F5013505F011
:101480001F070125BD40C4E790FAA0F2B2FA82F22C
:10149000013202F01F0202EB42021205C2E7CEB98E
:1014A000820E0132920602F0F842E6B9850E01354D
:1014B00005F01F070125BD401543F6B9800E013028
:1014C00000F01F0000EB40021E3A120542F00072CD
:1014D0002A43A8E790FAA0F2B2FA82F20132920609
:1014E00002F0F842E1E790FAA0F5B5FA85F501358A
:1014F00005F01F070125BD40DEE790FAA0F0B0FA25
:1015000080F0013000F01F0000EB4000A0F11E024F
:10151000120542F00072DBE711F4000F7FF4D7AE42
:101520001968144A914201D000205DE044F40002A1
:101530000C48816821F0E0710A4382600E4A12680B
:1015400092090E49A1FB0212920902EB420291009C
:10155000019118E000F0FF03FFFF070000007F404B
:101560000000088000030450000052C7000084CB34
:10157000010000800000045048000020632D3E055B
:10158000019A013A0192019A002AF9D100202BE038
:1015900011F0807F7FF49FAE1968194A914201D003
:1015A000002021E044F080721648816821F0E0714B
:1015B0000A438260002017E011F4800F1CD11968E3
:1015C0000F4A914201D000200EE044F480020D4801
:1015D000816821F0E0710A438260002004E09A6D86
:1015E00042F020029A650120002283F8542002B0C4
:1015F000F0BC70470020F7E70020F5E70220F6E78F
:10160000000004500003045030B583B00023019360
:10161000002800F0AF80044603681B68002BC0F26E
:10162000AB8090F82530002B2ED02268106800F493
:101630000000E36821690B43E1690B4361690B43D7
:10164000A1690B43A1680B4315684D4929400B4321
:1016500013606368B3F5007F29D04A4A136823F406
:10166000007313602268136813F4000F2BD050BB73
:10167000454B1B689B094549A1FB03139B0903EBE1
:101680008303990001911BE080F82430836203F109
:10169000804303F504331A6E42F001021A661B6E92
:1016A00003F001030093009B0BF022FFBDE7354AD6
:1016B000136843F400731360D4E7019B013B01936B
:1016C000019B002BF9D1324B9A4227D04FF4800373
:1016D000226A12F0030F3CD012F0100F21D02D49D6
:1016E0008A681A438A60226A12F0200F1FD02949A3
:1016F000CA681A43CA60274A5361226A12F0020F6D
:101700001BD024494A681A434A60226A12F0010F2A
:1017100019D020490A6813430B6022E04FF40013EC
:10172000D6E71C498A6822EA03028A60DBE7194986
:10173000CA6822EA0302CA60DDE716494A6822EA5B
:1017400003024A60E1E713490A6822EA03030B60D7
:1017500007E0104A5168DB431940516011680B40A3
:10176000136094F825304BB9012384F8253000200C
:1017700003B030BD0120FBE70120F9E70020F7E7C7
:10178000037D20FF0402014048000020632D3E0538
:10179000000201400004014082B00023019320B305
:1017A00001680B68002B22DB90F82530DBB2012B9F
:1017B00002D0012002B070470B6843F001030B60B8
:1017C000022380F825300B4B1B689B090A4AA2FBB9
:1017D00003239B09DB00019302E0019B013B019382
:1017E000019B002BF9D10020E4E70120E2E7012072
:1017F000E0E700BF48000020632D3E0508B5026801
:101800000F4B9A4214D04FF480030E4A526933EAC8
:10181000020210D0002252B10B4A126812F4007F6B
:101820000BD04FF4C002074B5A610DF011FA08BDFE
:101830004FF40013E9E70122EDE7024A5361F4E7B0
:10184000000201400004014004020140074AD3683D
:1018500023F4E0631B041B0C000200F4E060184357
:1018600040F0BF6040F40030D060704700ED00E011
:1018700030B4164BDB68C3F30223C3F10704042C16
:1018800028BF04241D1D062D17D9033B012505FA89
:1018900004F4013C2140994005FA03F3013B134055
:1018A000194300280BDB0901C9B200F1604000F5C3
:1018B000614080F8001330BC70470023E6E700F079
:1018C0000F000901C9B2024B1954F4E700ED00E022
:1018D00014ED00E0420900F01F00012303FA00F0BC
:1018E000014B43F82200704700E100E070B110B5F1
:1018F0000446037933B102232371002020610123C0
:10190000237110BD43710BF057FEF4E701207047BF
:101910004379012B2AD030B4012343710222027192
:101920000468226801F01005AB401343236089B9B5
:101930000268136803F03E03022B06D001230371F3
:1019400000234371184630BC7047536843F00103CD
:101950005360F3E70268136803F47813B3F5003FAC
:10196000ECD1536843F002035360E7E7022070476D
:10197000F8B5069D4479012C6DD0012444710224F0
:101980000471002934D18468344EE6628468344E90
:1019900026638468334E66630668346844F4805472
:1019A0003460042D1ED0082D1FD0C5B10D4616463B
:1019B0000F460446002939D101680A6842F40052F2
:1019C0000A602A463146806800F044FA00236371B9
:1019D000002836D0236943F004032361F8BD05686D
:1019E0000835E4E705680C35E1E705681035DEE702
:1019F000C4681D4EE662C4681C4E2663C4681C4E53
:101A000066630668346844F080543460042D07D05F
:101A1000082D08D00DB10025C9E705681435C6E7C3
:101A200005681835C3E705681C35C0E701680A6812
:101A300042F000520A602A463146C06800F00AFAB5
:101A4000C4E72468236807F01001012202FA01F1BB
:101A500019432160F8BD0220F8BD00BF751A0008C7
:101A6000871A0008931A0008911C0008A11C00089E
:101A7000AB1C000810B5846A20460FF051FA012310
:101A8000237110BD704708B5806AFFF7FBFF08BDE2
:101A9000704710B5846A236943F00403236120462C
:101AA000FFF7F6FF0123237110BD704710B5044600
:101AB00003681A6812F4005F03D05A6B12F4005FD7
:101AC00009D123681A6812F0005F03D05A6B12F034
:101AD000005F11D110BD04220271026942F00102BF
:101AE00002614FF400525A630268136823F4805372
:101AF0001360FFF7DAFFE4E704222271226942F063
:101B0000020222614FF000525A632268136823F0E8
:101B100080531360204600F0BAF8DBE7F8B543794C
:101B2000012B00F0AC8015460E460446012343719C
:101B3000022303714B68042B3CD07369012B00F026
:101B400083802168CB6B05F010050722AA4023EAA9
:101B500002027368F068034330690343AB401343E8
:101B6000CB6321680B684FF48042AA4023EA02034A
:101B70000B6023681B6840F6FE72AA4023EA02034A
:101B8000B768AF401F433368B3F5004F69D0002BEF
:101B90006AD127F400472268176021680B68C022C9
:101BA00002FA05F523EA05050D60012323710020E3
:101BB0006071F8BD72B123685B6B002B25DAFFF70B
:101BC000BFF90128F7D9236943F0080323610320F3
:101BD0002071F8BDFFF7B4F9074623685B6B13F477
:101BE000004F0BD0FFF7ACF9C01B0128F5D92369D2
:101BF00043F00803236103202071F8BD0120FFF7A3
:101C0000A5F92368F2691A6405E00120FFF79EF93F
:101C10002368F2695A642068836C05F0100240F270
:101C2000FF31914023EA0103316A91400B43836401
:101C30002068C36CFF21914023EA0103716A01FA15
:101C400002F21343C36478E72068836B05F0100742
:101C50001F21B94023EA0103B269BA4013438363E9
:101C60006FE747F4004796E702F0D4FB054B984234
:101C700002D947F400478EE727F400478BE702209C
:101C8000F8BD00BF00B4C404704770477047704788
:101C900010B5846A2046FFF7F7FF0123237110BDBA
:101CA00008B5806AFFF7F1FF08BD10B5846A2369A3
:101CB00043F0040323612046FFF7E8FF012323716B
:101CC00010BD70B4C46C056D6560446D14B1846D55
:101CD000C56D6560066C446C04F01C050124AC40C5
:101CE0007460046863608368102B05D00368996092
:101CF0000368DA6070BC704703689A600368D96053
:101D0000F8E7000003680D4A934214D90C49DBB28E
:101D1000083B0C4AA2FB03231B09426C22F003027E
:101D20000A448264084AC26403F01C03012202FAD6
:101D300003F3036570470549E9E700BF0704024064
:101D40001C080240CDCCCCCC8008024000080240E8
:101D50000379074A1A4492004265064A8265013BAC
:101D600003F00303012202FA03F3C365704700BFC7
:101D70003F8200104009024000285CD010B50446A4
:101D800002682E4B9A423ED82D4B13442D4AA2FB9B
:101D900003231B099B0043642B4B0364022384F839
:101DA000253021680A6822F4FF4222F07002A368FD
:101DB000E06803432069034360690343A069034368
:101DC000E0690343206A034313430B602046FFF797
:101DD00099FFA368B3F5804F20D0A36C22791A60D5
:101DE000E36C226D5A606368013B032B19D9002311
:101DF0006365A365E3650020E063012384F8253073
:101E000084F8240010BD114B13440E4AA2FB032397
:101E10001B099B0043640E4B0364BFE70023636010
:101E2000DBE72046FFF794FF636D00221A60A36D85
:101E3000E26D5A60DFE70120704700BF07040240EF
:101E4000F8FFFDBFCDCCCCCC00000240F8FBFDBFBD
:101E50000004024038B590F82440012C42D00124FF
:101E600080F8244090F82540E4B2012C04D00023EF
:101E700080F82430022038BD0446022084F8250072
:101E80000020E0632568286820F0010028602046D3
:101E9000FFF717FF236BD3B12268136843F00E03DB
:101EA0001360A36C1A6812F4803F03D01A6842F4DE
:101EB00080721A60636D1BB11A6842F480721A60F6
:101EC0002268136843F001031360002038BD2268C4
:101ED000136823F0040313602268136843F00A03B5
:101EE0001360DEE7022038BD08B590F82530DBB27C
:101EF000022B03D00423C363012008BD02681368CA
:101F000023F00E0313600268136823F001031360CB
:101F1000826C136823F480731360016C436C03F0CC
:101F20001C02012393404B60C36C026D5A60436DE9
:101F300033B11A6822F480721A60836DC26D5A60E0
:101F4000012380F82530002380F82430836B13B1FF
:101F50009847002008BD002008BD38B5036C1968FB
:101F600004682568436C03F01C0304229A40114264
:101F700016D015F0040F13D0236813F0200F03D1EF
:101F8000236823F004032360016C436C03F01C02FC
:101F9000042393404B60036B002B3ED0984738BD21
:101FA00002229A4011421BD015F0020F18D023686C
:101FB00013F0200F06D1236823F00A0323600123C6
:101FC00080F82530016C436C03F01C02022393401F
:101FD0004B60002380F82430C36AF3B1984738BDC2
:101FE000082202FA03F3194217D015F0080F14D093
:101FF000236823F00E032360016C436C03F01C0381
:10200000012202FA03F34B60C26380F8252000230B
:1020100080F82430436B03B1984738BDF0B583B0E6
:1020200000234AE04FEAD30E0EF1080E50F82E407E
:1020300003F00706B6000F27B74024EA07040F692C
:1020400007FA06F6344340F82E4043E0072600E046
:102050000026BE40354302345A4E46F824505A4CAE
:102060002568D44305EA04064F6817F4803F01D081
:1020700042EA0506544D2E606D6804EA05064F6875
:1020800017F4003F01D042EA05064F4D6E60AD687F
:1020900004EA05064F6817F4801F01D042EA0506DE
:1020A000494DAE60ED682C404E6816F4001F01D01B
:1020B00042EA0504444AD46001330A6832FA03F460
:1020C0007ED001259D402A40F6D04C68022CA9D034
:1020D000122CA7D006684FEA430E032404FA0EF42C
:1020E000E44326404F6807F0030707FA0EF73E4324
:1020F00006604E68771E012F03D9112E01D0122ED3
:102100000FD186682640CF6807FA0EF73E438660F7
:10211000466826EA05054E68C6F300169E4035431C
:102120004560C5682C408D6805FA0EF52C43C460E7
:102130004C6814F0805FBFD0244C256E45F001053B
:102140002566246E04F001040194019C9C08A61CE1
:102150001C4D55F8265003F00306B7000F26BE406D
:1021600025EA0605B0F1904F3FF472AF184EB04229
:102170001AD006F58066B04218D006F58066B042E7
:1021800016D006F58066B04214D006F58066B042DF
:1021900012D006F58066B04210D006F58066B042D7
:1021A0003FF454AF082654E7012652E7022650E7D1
:1021B00003264EE704264CE705264AE7062648E7AD
:1021C00003B0F0BD000001400004014000100240D7
:1021D000000400480369194201D100207047012022
:1021E00070470AB9816270478161704743695940FD
:1021F0004161704708B5054B5B69034200D108BDDA
:10220000024B58610CF028FDF9E700BF00040140C3
:1022100003689A6912F0020F01D000229A620368E3
:102220009A6912F0010F03D19A6942F001029A6192
:10223000704770B4039D066870686C0D04F4806488
:1022400044F07F7444F4583444F47F7444F003043D
:1022500020EA0400C1F3090141EA0241194329437C
:102260000843706070BC7047436B1D4A934219D09D
:102270001C4A934216D011F0040F2CD1002311F008
:10228000010F01D043F0F20311F0020F01D043F02F
:10229000F40301F0120112291FD0026811680B43E8
:1022A0001360704711F0040F0DD1002301F01102EB
:1022B000112A0AD001F01201122909D01229ECD1F9
:1022C00043F04003E9E7B823F0E743F09003F1E778
:1022D00043F02003F2E7B823D1E743F02003DCE723
:1022E0000B3700082336000811F0010F09D090F8D1
:1022F000413003F02803282B01D0F22302E04223CF
:1023000000E0002311F0020F2CD010B443F044047D
:1023100090F8412002F02802282A18D043F0F40354
:1023200011F0040F01D043F0B80301F01102112A9B
:102330000FD001F0120112290ED012290FD001681E
:102340000A6822EA03030B605DF8044B70472346DA
:10235000E6E743F09003ECE743F02003EDE743F0BA
:102360004003ECE711F0040F01D043F0B80301F093
:102370001102112A0BD001F0120112290AD01229E0
:102380000BD001680A6822EA03030B60704743F030
:102390009003F0E743F02003F1E743F04003F0E758
:1023A00070B504460D46164603689B6913F0100F7E
:1023B0001CD023689A6912F0200F19D1B5F1FF3FA4
:1023C000F7D0FEF7BDFD801B854201D3002DF0D173
:1023D000636C43F020036364202384F841300023BE
:1023E00084F8423084F84030012070BD002070BD78
:1023F0001022DA6123682025DD612046FFF708FFFF
:102400002268536823F0FF7323F48B3323F4FF73A4
:1024100023F001035360636C43F00403636484F8A6
:102420004150002384F8423084F84030012070BDD0
:1024300070B504460D46164623689B6913F0020FDB
:102440001DD1324629462046FFF7AAFFC8B9B5F18B
:10245000FF3FF1D0FEF774FD801B854201D3002DB4
:10246000EAD1636C43F020036364202384F8413095
:10247000002384F8423084F84030012070BD0020F1
:1024800070BD012070BDF8B505460F4616461C46C6
:102490002B689B6937EA03030CBF01230023B34277
:1024A00018D1B4F1FF3FF3D0FEF74AFD069BC01AE6
:1024B000844201D3002CEBD16B6C43F020036B649E
:1024C000202385F84130002385F8423085F84030DC
:1024D0000120F8BD0020F8BD70B582B00446154655
:1024E0001E46184B00934FF08073F2B2FFF7A1FE27
:1024F000079A06992046FFF79BFFE8B9012E0CD0FA
:1025000023682A0A9A62079A06992046FFF790FFE5
:10251000B0B92368EDB29D6202E02368EDB29D621E
:10252000079B0093069B002280212046FFF7ABFF0C
:10253000034610B1012300E00123184602B070BD2C
:102540000123FAE70020008070B582B004461546EA
:102550001E46184B00930023F2B2FFF76AFE079A5B
:1025600006992046FFF764FFE8B9012E0CD02368D6
:102570002A0A9A62079A06992046FFF759FFB0B9CE
:102580002368EDB29D6202E02368EDB29D62079B75
:102590000093069B002240212046FFF774FF03466C
:1025A00010B1012300E00123184602B070BD0123E1
:1025B000FAE700BF0020008070B505460C461646BD
:1025C0002B689B6913F0200F1AD13246214628460A
:1025D000FFF7E6FEB0B9FEF7B3FC801B844201D3DF
:1025E000002CEDD16B6C43F020036B64202385F845
:1025F0004130002385F8423085F84030012070BD1D
:10260000002070BD012070BD70B504460D46164611
:1026100023689B6913F0040F3ED1324629462046B9
:10262000FFF7BEFE0146002838D123689A6912F0F0
:10263000200F13D1FEF784FC801B854201D3002DAF
:10264000E6D1636C43F020036364202384F84130B7
:10265000002384F840300121084670BD9A6912F0C9
:10266000040F02D0228D002AF6D12022DA612168DF
:102670004B6823F0FF7323F48B3323F4FF7323F0B1
:1026800001034B600023636484F8412084F84230E6
:1026900084F840300121DFE70021DDE70121DBE79D
:1026A000002859D010B5044690F84130002B43D093
:1026B000242384F841302268136823F00103136057
:1026C0002268636823F0706313612268936823F4BF
:1026D00000439360E368012B33D02268A36843F47E
:1026E00004439360E368022B31D02268536843F0BF
:1026F000007343F4004353602268D36823F400431B
:10270000D3602268236961690B43A16943EA01230D
:10271000D3602268E369216A0B431360226813685F
:1027200043F00103136000206064202384F84130EB
:10273000206384F8420010BD80F840300BF004FCA8
:10274000B6E72268A36843F400439360CAE72368AE
:102750004FF400625A60C8E7012070472DE9F0434A
:1027600083B090F84150EDB2202D04D002231846DA
:1027700003B0BDE8F08390F84040012C01D1022362
:10278000F5E7984617460D4604464FF0010980F8D4
:102790004090FEF7D5FB0646009019234A464FF4B9
:1027A00000412046FFF76FFE002840F0898021237A
:1027B00084F84130102384F8423000236364676258
:1027C000A4F82A806363638D9BB2FF2B0AD9FF2292
:1027D00022853F4B00934FF0807329462046FFF738
:1027E00028FD18E0628D92B22285394B00934FF09C
:1027F0000073D2B229462046FFF71BFD0BE0628D25
:1028000092B22285002300934FF00073D2B2294682
:102810002046FFF70EFD638D9BB2002B33D032466E
:102820000A992046FFF704FE00284BD12368626A0C
:1028300012789A62636A01336362638D9BB2013BD3
:102840009BB26385238D013B9BB22385628D92B23F
:10285000002AE0D0002BDED100960A9B00228021C6
:102860002046FFF710FE78BB638D9BB2FF2BC6D9C5
:10287000FF222285002300934FF0807329462046D3
:10288000FFF7D7FCC7E732460A992046FFF794FEC8
:102890000346D8B922682021D1612068426822F01D
:1028A000FF7222F48B3222F4FF7222F001024260A6
:1028B00084F84110002284F8422084F8402056E732
:1028C000012354E7012352E7012350E701234EE798
:1028D000002000802DE9F04383B090F84150EDB224
:1028E000202D04D00223184603B0BDE8F08390F8F1
:1028F0004040012C01D10223F5E7984617460D46CA
:1029000004464FF0010980F84090FEF719FB064697
:10291000009019234A464FF400412046FFF7B3FDCB
:10292000002840F08880222384F84130102384F866
:102930004230002363646762A4F82A806363638D76
:102940009BB2FF2B0AD9FF2222853F4B00934FF009
:10295000807329462046FFF76CFC18E0628D92B226
:102960002285394B00934FF00073D2B2294620469E
:10297000FFF75FFC0BE0628D92B22285002300938B
:102980004FF00073D2B229462046FFF752FC638D08
:102990009BB2002B32D032460A992046FFF734FE14
:1029A00000284AD1636A2268526A1A70636A013346
:1029B0006362228D013A92B22285638D9BB2013B04
:1029C0009BB26385638D9BB2002BE0D0002ADED1E1
:1029D00000960A9B80212046FFF755FD78BB638D4A
:1029E0009BB2FF2BC7D9FF222285002300934FF013
:1029F000807329462046FFF71CFCC8E732460A9937
:102A00002046FFF7D9FD0346D8B922682021D161BD
:102A10002068426822F0FF7222F48B3222F4FF72A7
:102A200022F00102426084F84110002284F8422022
:102A300084F8402057E7012355E7012353E701239A
:102A400051E701234FE700BF002400802DE9F04744
:102A500082B0BDF82C5090F84140E4B2202C04D054
:102A60000223184602B0BDE8F0870A9C34B12DB1AC
:102A700090F84040012C06D10223F2E74FF4007396
:102A800043640123EDE7984691460E4604464FF015
:102A9000010A80F840A0FEF753FA07460090192378
:102AA00052464FF400412046FFF7EDFC08B10123E8
:102AB000D7E7212384F84130402384F842300023B3
:102AC00063640A9A62626585636301970C9B009355
:102AD00043464A4631462046FFF7FEFC70B9638DF7
:102AE0009BB2FF2B0FD9FF222285002300934FF0CA
:102AF000807331462046FFF79CFB21E0002384F8D9
:102B000040305346ADE7628D92B222850023009398
:102B10004FF00073D2B231462046FFF78AFB0FE038
:102B2000628D92B22285002300934FF00073D2B2DF
:102B300031462046FFF77DFB638D9BB2002B33D0DF
:102B40003A460C992046FFF773FC002849D12368C8
:102B5000626A12789A62636A01336362638D9BB220
:102B6000013B9BB26385238D013B9BB22385628D24
:102B700092B2002AE0D0002BDED100970C9B0022FD
:102B800080212046FFF77FFC68BB638D9BB2FF2B43
:102B9000C6D9FF222285002300934FF0807331466F
:102BA0002046FFF746FBC7E73A460C992046FFF759
:102BB00003FD0346C8B922682021D161206842681C
:102BC00022F0FF7222F48B3222F4FF7222F0010213
:102BD000426084F84110002284F8422084F84020AA
:102BE0003FE701233DE701233BE7012339E70000ED
:102BF0002DE9F04782B0BDF82C5090F84140E4B286
:102C0000202C04D00223184602B0BDE8F0870A9CAD
:102C100034B12DB190F84040012C06D10223F2E7E7
:102C20004FF4007343640123EDE7984691460E4646
:102C300004464FF0010A80F840A0FEF781F90746EC
:102C40000090192352464FF400412046FFF71BFC29
:102C500008B10123D7E7222384F84130402384F8C8
:102C60004230002363640A9A626265856363019758
:102C70000C9B009343464A4631462046FFF764FCCE
:102C800070B9638D9BB2FF2B0FD9FF222285414B78
:102C900000934FF0807331462046FFF7CAFA21E0D7
:102CA000002384F840305346ADE7628D92B222850E
:102CB000384B00934FF00073D2B231462046FFF7F5
:102CC000B8FA0FE0628D92B22285002300934FF094
:102CD0000073D2B231462046FFF7ABFA638D9BB248
:102CE000002B34D000970C9B002204212046FFF7D4
:102CF000CAFB002848D1636A2268526A1A70636A64
:102D000001336362228D013A92B22285638D9BB2B8
:102D1000013B9BB26385638D9BB2002BDED0002A02
:102D2000DCD100970C9B80212046FFF7ACFB68BBF1
:102D3000638D9BB2FF2BC5D9FF2222850023009310
:102D40004FF0807331462046FFF773FAC6E73A46E4
:102D50000C992046FFF730FC0346C8B922682021B1
:102D6000D1612068426822F0FF7222F48B3222F493
:102D7000FF7222F00102426084F84110002284F8C0
:102D8000422084F840203EE701233CE701233AE754
:102D9000012338E7002400802DE9F04182B0BDF81E
:102DA000245090F84140E4B2202C04D00224204664
:102DB00002B0BDE8F081089C3CB135B10468A4695B
:102DC00014F4004F06D00224F1E74FF4007343647B
:102DD0000124ECE790F84040012C01D10224E6E701
:102DE0001F4614460E468046012380F84030FEF709
:102DF000A7F8222388F84130402388F84230002386
:102E0000C8F84430089BC8F82430A8F82A501C4B56
:102E1000C8F82C301B4BC8F83430B8F82A309BB2B5
:102E2000FF2B14D9FF23A8F828304FF080750190AC
:102E3000192300933B46224631464046FFF784FB68
:102E4000044658B1002388F840300124AFE7B8F8B1
:102E50002A30A8F828304FF00075E8E798F82820C5
:102E6000094B00932B4631464046FFF7E2F9002319
:102E700088F8403002214046FFF7F6F997E700BF97
:102E80000000FFFFA73400080024008008B5036895
:102E900099691A68436B03B1984708BD704770473A
:102EA00038B50446002380F8423090F84130DBB258
:102EB000212B0FD0202380F84130122303630025FB
:102EC00045630221FFF710FA84F840502046FFF7CF
:102ED000E6FF38BD202380F841301123036300252D
:102EE00045630121FFF700FA84F840502046FFF7C0
:102EF000D5FF38BD7047704710B50446002380F8F1
:102F0000423090F84130DBB2292B05D090F84130A7
:102F1000DBB22A2B0FD010BD282380F841302123AB
:102F200003630121FFF7E0F9002384F840302046D5
:102F3000FFF7E0FF10BD282380F841302223036310
:102F40000221FFF7D1F9002384F840302046FFF733
:102F5000D2FFE0E77047F8B590F8413003F028035E
:102F6000282B06D003680822DA61002380F840305D
:102F7000F8BD044603689E69C6F300469A69120CC0
:102F800002F0FE059A68C2F30902DF6807F0FE0747
:102F9000C168022921D185EAD21515F0060F10D19A
:102FA000816C01318164816C0229E1D1002181644D
:102FB0000820D86184F8401031462046FFF7CAFF48
:102FC000F8BD0421FFF790F9002384F840303A4619
:102FD00031462046FFF7BEFFF8BD0421FFF784F914
:102FE000002384F840302A4631462046FFF7B2FFDE
:102FF000F8BD704710B50446174BC3620023036346
:10300000202280F8412080F84230436311F0040F01
:1030100013D0436A0268526A1A70436A01334362EA
:10302000038D53B1013B0385438D9BB2013B9BB2A2
:103030004385436C43F00403436407212046FFF7B4
:1030400053F923681022DA61002384F840302046C7
:10305000FFF7CFFF10BD00BF0000FFFF70477047B4
:103060007047704710B5044690F84130002280F850
:1030700042203648E0626285626C11436164283BFD
:10308000DBB2022B1FD803212046FFF72DF928239E
:1030900084F84130002323632D4B636323681A684F
:1030A00012F4804F23D01A6822F480421A60A36B76
:1030B00043B1284A9A63002384F84030A06BFEF79E
:1030C00013FF80B910BD07212046FFF70DF994F8D2
:1030D0004130DBB2602B02D0202384F84130002342
:1030E00023636363DAE7A06B836B984710BD1A68AC
:1030F00012F4004F14D01A6822F400421A60E36BF5
:10310000002BDFD0134A9A63002384F84030E06B31
:10311000FEF7EAFE0028D5D0E06B836B984710BD20
:1031200094F84130DBB2602B06D0002384F84030A5
:103130002046FFF795FFC5E7202384F841300023A0
:1031400084F840302046FFF78CFF10BD0000FFFFE1
:10315000753200084F38000870B504460D46036804
:103160001E682022DA6103680822DA610721FFF76E
:10317000BBF82268536843F40043536022685368E5
:1031800023F0FF7323F48B3323F4FF7323F0010345
:1031900053602046FFF73CF816F4804F39D0A36BFC
:1031A0001BB11B685B689BB2638515F0040F0FD0E1
:1031B000636A2268526A1A70636A01336362238DFC
:1031C00033B1013B2385638D9BB2013B9BB2638589
:1031D000638D9BB21BB1636C43F0040363640023F3
:1031E000236384F842306363636CEBB9E36A13F5DD
:1031F000803F27D194F84130DBB2222B2ED0202300
:1032000084F84130002384F840302046FFF772FEF6
:1032100070BD16F4004FC8D0E36B002BC5D01B68FF
:103220005B689BB26385C0E7616C2046FFF71AFFBD
:1032300094F84130DBB2282BEAD129462046FFF72B
:10324000D9FE70BD0A4BE362202384F8413000238D
:1032500084F840302046FFF7CCFE70BD202384F870
:103260004130002384F840302046FFF744FE70BD13
:103270000000FFFFF8B5C76A90F84030012B00F05E
:103280009E8016460D460446012380F8403011F01A
:10329000100F3FD012F0100F3CD0438D9BB24BBBB0
:1032A00090F84130DBB2282B11D094F84130DBB2DA
:1032B000292B12D023681022DA6115F0200F02D0DA
:1032C00016F0200F76D1002084F84000F8BDB7F149
:1032D000007FEAD1FFF78EFEEFE717F5803FE9D0D8
:1032E00023681022DA612046FEF792FF2046FFF79E
:1032F00003FEE2E703681022DA61436C43F0040343
:10330000436417B1B7F1807FD7D1616C2046FFF7D6
:10331000A9FED2E715F0040F1FD016F0040F1CD041
:10332000638D9BB273B1636A2268526A1A70636AD2
:1033300001336362238D013B2385638D9BB2013B87
:103340009BB26385638D9BB2002BB6D117F5803F8E
:10335000B3D02046FFF7D0FDAFE715F0080F02D03D
:1033600016F0080F18D115F0020FA6D016F0020FB4
:10337000A3D0638D9BB2A3B12368626A12789A626C
:10338000636A01336362638D9BB2013B9BB26385C9
:10339000238D013B238590E729462046FFF7DBFD7F
:1033A0008BE7B7F1807F01D0002F86D12046FFF751
:1033B000A3FD82E729462046FFF7CEFE83E70220E1
:1033C000F8BD10B5044603682022DA61026853682C
:1033D00023F0FF7323F48B3323F4FF7323F00103F3
:1033E0005360002303634363A3F58033C36211F08A
:1033F000100F06D003681022DA61436C43F0040317
:1034000043642046FEF704FF03212046FEF76CFFCD
:10341000626C94F84130DBB2602B0BD052B994F857
:103420004130DBB2212B0AD094F84130DBB2222BA1
:103430001FD010BD616C2046FFF714FE10BD202385
:1034400084F8413094F84230DBB2402B08D000239E
:1034500084F8423084F840302046FFF71FFD10BD4D
:10346000002384F8423084F840302046FFF7F6FD10
:1034700010BD202384F8413094F84230DBB2402B59
:1034800008D0002384F8423084F840302046FFF70B
:1034900006FDCEE7002384F8423084F84030204611
:1034A000FFF7DDFD10BD90F84030012B00F0B78034
:1034B00070B582B016460D460446012380F84030B0
:1034C00011F0100F02D012F0100F20D115F0040FE0
:1034D00027D016F0040F24D0636A2268526A1A704B
:1034E000636A01336362238D013B2385638D9BB245
:1034F000013B9BB2638515F0200F03D016F0200F1F
:1035000040F08880002084F8400002B070BD03685D
:103510001022DA61436C43F004034364FEF778FE43
:10352000E9E715F0020F12D016F0020F0FD0236852
:10353000626A12789A62636A01336362238D013B87
:103540002385638D9BB2013B9BB26385D3E715F066
:10355000800F3FD016F0400F3CD0638D9BB25BB321
:10356000238D4BBB23685968C1F30901638D9BB25E
:10357000FF2B0ED8628D92B22285E36A13F5803F4D
:1035800011D0E36A00200090D2B22046FEF751FE2F
:10359000B1E7FF222285002300934FF0807320467D
:1035A000FEF747FEA7E7002300934FF00073D2B267
:1035B0002046FEF73EFE9EE723685B6813F0007F1F
:1035C00003D12046FFF76CFC95E740212046FFF72A
:1035D00049FD90E715F0400F8DD016F0400F8AD0CE
:1035E000638D9BB28BB923685A6812F0007F82D139
:1035F000E26A12F5803F03D02046FFF751FC7AE7DC
:103600005A6842F480425A6075E740212046FFF72D
:1036100029FD70E729462046FFF7D3FE72E7022016
:10362000704738B5C56A90F84030012B6BD004461E
:10363000012380F8403011F0100F4CD012F0100F21
:1036400049D012F4404F42D0C36BD3B11B685B68C2
:10365000CBB10022A36B1BB11B685B6803B90122CD
:103660009AB923681022DA61636C43F0040363643F
:1036700015B1B5F1807F3AD1616C2046FFF7F2FCBD
:1036800035E00022E6E70122E4E794F84130DBB2BE
:10369000282B08D094F84130DBB2292B0AD02368BC
:1036A0001022DA6123E0B5F1007FF3D12046FFF765
:1036B000A1FC1CE015F5803FF1D023681022DA61EF
:1036C0002046FEF7A5FD2046FFF716FC0FE0036835
:1036D0001022DA610BE011F0080F02D012F0080F8F
:1036E00009D111F0200F02D012F0200F07D10020D5
:1036F00084F8400038BD2046FFF72DFCF7E7204650
:10370000FFF72AFDF3E7022038BD90F84030012B87
:1037100000F09B8010B582B00446012380F8403051
:1037200011F0100F02D012F0100F32D111F0800FF3
:103730005CD012F0400F59D02268136823F0400388
:103740001360638D9BB2002B42D023685968C1F38C
:103750000901638D9BB2FF2B29D9FF2323854FF0ED
:10376000807394F82820002000902046FEF761FD29
:10377000638D9BB2228D9B1A9BB2638594F8413076
:10378000DBB2222B1ED02268136843F480431360FF
:1037900052E003681022DA61436C43F0040343648F
:1037A0001221FEF761FD2046FEF732FD44E0638DF5
:1037B0002385E36A13F5803F01D0E36AD1E74FF038
:1037C0000073CEE72268136843F40043136033E0CC
:1037D00023685B6813F0007F03D12046FFF760FB8E
:1037E0002AE040212046FFF73DFC25E011F0400F84
:1037F0001CD012F0400F19D0638D9BB28BB9236897
:103800005A6812F0007F17D1E26A12F5803F03D0A8
:103810002046FFF745FB0FE05A6842F480425A60A9
:103820000AE040212046FFF71DFC05E011F0200FC3
:1038300002D012F0200F04D1002084F8400002B022
:1038400010BD2046FFF7BDFDF6E70220704708B522
:10385000806A826B00239363C26B936390F841305C
:10386000DBB2602B02D0FFF7FBFB08BD202380F802
:103870004130FFF7F6FB08BD90F84130DBB2202B5A
:1038800001D00220704790F84030012B20D0012356
:1038900080F84030242380F841300268136823F018
:1038A000010313600268136823F4805313600268F5
:1038B0001368194311600268136843F00103136031
:1038C000202380F84130002380F8403018467047AC
:1038D0000220704790F84130DBB2202B01D002204B
:1038E000704790F84030012B1ED0012380F8403003
:1038F000242380F841300268136823F00103136029
:103900000268136823F4706343EA012111600268BE
:10391000136843F001031360202380F84130002333
:1039200080F840301846704702207047024A1368FA
:1039300043F4807313607047007000400A4B1B68AB
:1039400003F4C063B3F5806F08D0074BD3F8803021
:1039500013F4807F05D04FF4007070474FF48060FF
:1039600070470020704700BF00700040002836D12B
:103970003E4B1B6803F4C063B3F5806F08D03B4A2D
:10398000D2F8803023F48073C2F880300020704772
:10399000364AD2F8803023F48073C2F8803013683E
:1039A00023F4C06343F400731360314B1A6832236D
:1039B00003FB02F32F4AA2FB03239B0C013300E01D
:1039C000013B2A4A526912F4806F01D0002BF7D1D3
:1039D000264B5B6913F4806F44D003207047B0F529
:1039E000007F08D0214A136823F4C06343F4806346
:1039F0001360002070471D4B1B6803F4C063B3F5D0
:103A0000806F08D0194AD2F8803043F48073C2F82E
:103A1000803000207047154AD2F8803043F480731C
:103A2000C2F88030136823F4C06343F4007313605A
:103A30000F4B1A68322303FB02F30E4AA2FB032347
:103A40009B0C013300E0013B084A526912F4806F7D
:103A500001D0002BF7D1054B5B6913F4806F03D0C5
:103A6000032070470020704700207047007000401E
:103A70004800002083DE1B43254BDB6803F0030373
:103A8000012B15D00021224AD36803F00303D0682C
:103A9000C0F303100130022B1DD0032B2DD0B1FB3E
:103AA000F0F11B4BD868C0F3062000FB01F01BE0CF
:103AB000174B1B6813F0080F08D1154BD3F894303F
:103AC000C3F30323134A52F82310DCE7104B1B689F
:103AD000C3F30313F6E7104BB3FBF0F30C4AD068C3
:103AE000C0F3062000FB03F0094BDB68C3F341631E
:103AF00001335B00B0FBF3F07047084BB3FBF0F30E
:103B0000034AD068C0F3062000FB03F0ECE700BFD7
:103B1000001002405C3001080024F40000127A001A
:103B200030B583B005461F4B9B6D13F0805F0AD004
:103B3000FFF704FFB0F5007F16D07F2D1ED8702D43
:103B40002BD000211BE0174CA36D43F08053A365DD
:103B5000A36D03F080530193019BFFF7EFFEA36D6C
:103B600023F08053A365E5E7802D03D9A02D03D969
:103B7000022104E0002102E0012100E002210A4AC2
:103B8000136823F00F030B431360136803F00F0354
:103B9000994204D0012003B030BD0121EFE700209D
:103BA000F9E700BF0010024000200240314A93684C
:103BB000D26802F0030213F00C030AD00C2B06D0DB
:103BC000042B1FD0082B20D00020014610E0012A32
:103BD000F6D1284A126812F0080F0CD1254AD2F803
:103BE0009420C2F30322244951F8221043B100204B
:103BF0000C2B0DD070471F4A1268C2F30312F2E774
:103C00000846F5E71D480021F2E71D480021EFE7CF
:103C1000184BDA6802F00302DB68C3F303130133C5
:103C2000022A0AD0032A1AD0B1FBF3F3114AD06852
:103C3000C0F3062000FB03F008E01048B0FBF3F3EC
:103C40000C4AD068C0F3062000FB03F0094BDB6888
:103C5000C3F3416301335B00B0FBF3F0CAE70848EC
:103C6000B0FBF3F3034AD068C0F3062000FB03F077
:103C7000ECE700BF001002405C3001080024F400B3
:103C800000127A00002800F0C082F0B583B004462C
:103C9000AB4B9D6805F00C05DE6806F00306036873
:103CA00013F0100F7DD0E5B10C2D18D0A369002BB7
:103CB00000F0B480A24A136843F001031360FDF7DB
:103CC0003FF907469E4B1B6813F0020F40F09380AC
:103CD000FDF736F9C01B0228F4D90323A3E2012E15
:103CE000E4D1974B1B6813F0020F03D0A369002B9C
:103CF00000F08E82206A924B1B6813F0080F1DD0D3
:103D00008F4B1B6803F0F00383421ED2FFF708FFBE
:103D1000002840F07F828A4B1A6842F008021A603D
:103D20001A6822F0F002216A0A431A605A6822F4E3
:103D30007F42E16942EA01225A601EE0804BD3F8DB
:103D400094301B0903F0F003DEE77D4B1A6842F064
:103D500008021A601A6822F0F002216A0A431A6007
:103D60005A6822F47F42E16942EA01225A60206ADD
:103D7000FFF7D6FE002840F04F82FFF717FF704B89
:103D80009B68C3F303136F4AD35C03F01F03D8404F
:103D90006D4B186000200BF019FC0346002840F022
:103DA0004282236813F0010F57D0082D4CD00C2D00
:103DB00048D06368B3F5803F6ED0B3F5A02F71D0C3
:103DC0005F4B1A6822F480321A601A6822F480224B
:103DD0001A606368002B72D0FDF7B2F80746584BA3
:103DE0001B6813F4003F38D1FDF7AAF8C01B642804
:103DF000F5D9032317E2524B1A6842F008021A6001
:103E00001A6822F0F002216A0A431A605A6822F402
:103E10007F42E16942EA01225A60C2E7484A1368D8
:103E200023F001031360FDF78BF80746444B1B6832
:103E300013F0020FB5D0FDF783F8C01B0228F5D9A7
:103E40000323F0E1032EB4D13D4B1B6813F4003F74
:103E500003D06368002B00F0E181236813F0020FA8
:103E60004FD0042D3CD00C2D38D0E368002B76D0F9
:103E7000334A136843F480731360FDF761F8064614
:103E80002F4B1B6813F4806F60D1FDF759F8801B2E
:103E90000228F5D90323C6E1294A136843F4803385
:103EA000136096E703F18043A3F53C331A6842F4AC
:103EB00080221A601A6842F480321A6089E7FDF79E
:103EC0003FF807461E4B1B6813F4003FC5D0FDF7B3
:103ED00037F8C01B6428F5D90323A4E1022EC4D10E
:103EE000174B1B6813F4806F03D0E368002B00F0BE
:103EF0009781134A536823F0FE43216943EA016323
:103F00005360236813F0080F54D06369002B3AD034
:103F10000B4AD2F8943043F00103C2F89430FDF715
:103F20000FF80646064BD3F8943013F0020F41D138
:103F3000FDF706F8801B0228F4D9032373E100BFC4
:103F4000001002404430010848000020B74A53687E
:103F500023F0FE43216943EA01635360D1E7B34A8A
:103F6000136823F480731360FCF7EAFF0646AF4B37
:103F70001B6813F4806FC4D0FCF7E2FF801B02289B
:103F8000F5D903234FE1A94AD2F8943023F0010375
:103F9000C2F89430FCF7D4FF0646A44BD3F8943013
:103FA00013F0020F06D0FCF7CBFF801B0228F4D9D8
:103FB000032338E1236813F0040F7AD09B4B9B6DE9
:103FC00013F0805F36D1994B9A6D42F080529A651A
:103FD0009B6D03F080530193019B0126944B1B685A
:103FE00013F4807F28D0A368012B39D0052B3FD054
:103FF0008E4BD3F8902022F00102C3F89020D3F822
:10400000902022F00402C3F89020A368002B3DD03A
:10401000FCF796FF0746854BD3F8903013F0020F5C
:1040200046D1FCF78DFFC01B41F288339842F2D98C
:104030000323F8E00026D1E77D4A136843F4807338
:104040001360FCF77DFF0746794B1B6813F4807FF4
:10405000C9D1FCF775FFC01B0228F5D90323E2E0A4
:10406000724AD2F8903043F00103C2F89030CCE7A6
:104070006E4BD3F8902042F00402C3F89020D3F89E
:10408000902042F00102C3F89020BEE7FCF758FFF1
:104090000746664BD3F8903013F0020F08D0FCF7B8
:1040A0004FFFC01B41F288339842F2D90323BAE094
:1040B000E6B9236813F0200F35D0636AE3B15B4A99
:1040C000D2F8983043F00103C2F89830FCF738FF7B
:1040D0000646564BD3F8983013F0020F23D1FCF765
:1040E0002FFF801B0228F4D903239CE04F4A936DD5
:1040F00023F080539365DCE74C4AD2F8983023F0E4
:104100000103C2F89830FCF71BFF0646474BD3F873
:10411000983013F0020F06D0FCF712FF801B022824
:10412000F4D903237FE0A36A002B7BD00C2D00F091
:104130008180022B23D03D4B1A6822F080721A60D6
:104140001B6813F0205F04D1384AD36823F00303BF
:10415000D360364AD36823F0887323F48033D36066
:10416000FCF7EEFE0446314B1B6813F0007F4AD08B
:10417000FCF7E6FE001B0228F5D9032353E02B4A87
:10418000136823F080731360FCF7DAFE0546274BB3
:104190001B6813F0007F06D0FCF7D2FE401B0228FC
:1041A000F5D903233FE0236B5A1E636B1B0243EADE
:1041B0000213E26A1343E26B5208013A43EA4253A4
:1041C000226C5208013A43EA4263A26B43EAC2639B
:1041D000164AD360136843F080731360D36843F0CA
:1041E0008073D360FCF7ACFE0446104B1B6813F0E1
:1041F000007F06D1FCF7A4FE001B0228F5D903239B
:1042000011E000230FE000230DE001231846704762
:10421000012308E0012306E0012304E0012302E07A
:10422000012300E00023184603B0F0BD0010024057
:10423000007000400123F6E7002800F0DD80F8B5AB
:1042400004466F4B1B6803F00F038B420CD26C4A81
:10425000136823F00F030B431360136803F00F037D
:10426000994201D00120F8BD0D46266816F00106DE
:1042700074D06368032B1AD0022B41D0002B46D197
:1042800003F1804303F504331B6813F0020F00F0C1
:10429000B580FFF78BFC5B4B984243D95A4A936831
:1042A00023F0F00343F08003936080263BE0564BFD
:1042B0001B6813F0007F01D10120F8BDFFF7DCFB84
:1042C000504B98422AD9504B9B6813F0F00F08D1FD
:1042D0004D4A936823F0F00343F0800393608026F7
:1042E00021E0266816F002061DD0A368C3B9464A2D
:1042F000936823F0F00343F080039360802612E07C
:10430000414B1B6813F4003FC3D10120F8BD3E4B65
:104310001B6813F4806FBCD10120F8BD002602E0B9
:10432000002600E00026384A936823F00303616802
:104330000B439360FCF704FE0746334B9B6803F086
:104340000C036268B3EB820F08D0FCF7F9FDC01BC9
:1043500041F288339842F0D90320F8BD236813F066
:10436000020F19D0284A936823F0F003A1680B4389
:104370009360234B1B6803F00F039D4214D2204A25
:10438000136823F00F032B431360136803F00F032C
:104390009D4209D00120F8BD802EEAD11A4A9368C7
:1043A00023F0F0039360E4E7236813F0040F06D0D2
:1043B000154A936823F4E063E1680B439360236834
:1043C00013F0080F07D0104A936823F46053216953
:1043D00043EAC1039360FFF7E9FB0B4B9B68C3F310
:1043E00003130A4AD35C03F01F03D840084B18603C
:1043F00000200BF0EBF8F8BD012070470120F8BD5C
:104400000020024000B4C4040010024044300108FF
:1044100048000020014B1868704700BF480000208A
:1044200008B5FFF7F7FF054B9B68C3F30223044A67
:10443000D35C03F01F03D84008BD00BF001002404A
:104440005430010808B5FFF7E5FF054B9B68C3F33F
:10445000C223044AD35C03F01F03D84008BD00BF49
:1044600000100240543001080F2303600B4B9A6880
:1044700002F0030242609A6802F0F00282609A68D9
:1044800002F4E062C2609B68DB0803F4E06303614E
:10449000034B1B6803F00F030B60704700100240D2
:1044A00000200240F8B5594BDB6813F0030F0FD022
:1044B000564BDB6803F003030268934204D00124E7
:1044C000002C3AD02046F8BD002A34D00024F7E76B
:1044D0000368022B14D0032B19D0012B09D001241F
:1044E000002CEDD1494DEA6822F003021343EB6042
:1044F000E6E7464A126812F0020F14D00024EFE7F4
:10450000424A126812F4806F0FD00024E8E73F4A55
:10451000126812F4003F0AD13C4A126812F4802F4C
:1045200007D00024DCE70124DAE70124D8E70024DF
:10453000D6E70124D4E70124C2E70F460546334AF3
:10454000136823F080631360FCF7FAFC06462F4BD8
:104550001B6813F0006F05D0FCF7F2FC801B0228EB
:10456000F5D90324002CADD14FBB28480369284A54
:104570001A40A968EB68DB0643EA01236968013940
:1045800043EA011313430361204A136843F0806335
:104590001360FCF7D5FC06461C4B1B6813F0006F3C
:1045A00005D1FCF7CDFC801B0228F5D90324002C93
:1045B00088D1164A1369A9690B43136182E7012F59
:1045C00011D012480369134A1A40A9686B695B0845
:1045D000013B5B0643EA01236968013943EA0113A1
:1045E00013430361D0E7094803690B4A1A40A968DD
:1045F0002B695B08013B5B0543EA012369680139CC
:1046000043EA011313430361BEE700BF00100240F9
:104610000F80FF070F80FFF90F809FFFF8B5594B00
:10462000DB6813F0030F0FD0564BDB6803F0030376
:104630000268934204D00124002C3AD02046F8BDF1
:10464000002A34D00024F7E70368022B14D0032B90
:1046500019D0012B09D00124002CEDD1494DEA6875
:1046600022F003021343EB60E6E7464A126812F0B9
:10467000020F14D00024EFE7424A126812F4806F50
:104680000FD00024E8E73F4A126812F4003F0AD135
:104690003C4A126812F4802F07D00024DCE7012482
:1046A000DAE70124D8E70024D6E70124D4E701247F
:1046B000C2E70F460546334A136823F08053136060
:1046C000FCF73EFC06462F4B1B6813F0005F05D03D
:1046D000FCF736FC801B0228F5D90324002CADD151
:1046E0004FBB28484369284A1A40A968EB68DB0693
:1046F00043EA01236968013943EA01131343436123
:10470000204A136843F080531360FCF719FC0646F7
:104710001C4B1B6813F0005F05D1FCF711FC801BDC
:104720000228F5D90324002C88D1164A5369A969B7
:104730000B43536182E7012F11D012484369134A9A
:104740001A40A9686B695B08013B5B0643EA0123D9
:104750006968013943EA011313434361D0E709480B
:1047600043690B4A1A40A9682B695B08013B5B054A
:1047700043EA01236968013943EA011313434361A2
:10478000BEE700BF001002400F80FF070F80FFF957
:104790000F809FFF2DE9F04182B00446036813F4B7
:1047A000006F2CD0C36E402B1AD008D8FBB1202B41
:1047B00023D100212030FFF731FF054604E0602BB4
:1047C00001D0802B19D1002585BB624AD2F89C30DC
:1047D00023F0E003E16E0B43C2F89C302E4610E05C
:1047E0005C4AD36843F48033D3600025ECE70021B2
:1047F0000430FFF757FE0546E6E70125E4E700260B
:104800003546236813F4805F2AD0236FB3F5007F09
:1048100016D00DD8002B7ED0B3F5807F0ED10021AD
:1048200004F12000FFF7FAFE05460EE02E46E8E709
:10483000B3F5407F09D0B3F5806F06D0012504E0C1
:10484000444AD36843F48033D360002D69D1414A90
:10485000D2F89C3023F4E063216F0B43C2F89C3004
:10486000236813F4003F7ED03A4B9B6D13F0805FBA
:1048700059D10123002B58D0364B9A6D42F080520B
:104880009A659B6D03F080530193019B4FF00108E3
:10489000314A136843F480731360FCF751FB0746F9
:1048A0002D4B1B6813F4807F05D1FCF749FBC01B1F
:1048B0000228F5D90325002D50D1264BD3F890308E
:1048C00013F4407316D0D4F89420934212D0214AA6
:1048D000D2F8903023F44073D2F8901041F4803134
:1048E000C2F89010D2F8901021F48031C2F89010E4
:1048F000C2F8903013F0010F1AD1002D40F06A81F8
:10490000144AD2F8903023F44073D4F894100B4337
:10491000C2F8903023E00021201DFFF7C3FD0546BB
:1049200093E72E469CE70023A4E74FF00008AFE78B
:10493000FCF706FB0746074BD3F8903013F0020F45
:10494000DBD1FCF7FDFAC01B41F288339842F2D963
:104950000325D2E700100240007000402E46B8F157
:10496000000F40F03981236813F0010F08D0C04ACE
:10497000D2F8883023F00303E16B0B43C2F8883090
:10498000236813F0020F08D0B94AD2F8883023F018
:104990000C03216C0B43C2F88830236813F0040F1A
:1049A00008D0B34AD2F8883023F03003616C0B434F
:1049B000C2F88830236813F0080F08D0AC4AD2F848
:1049C000883023F0C003A16C0B43C2F88830236801
:1049D00013F0100F08D0A64AD2F8883023F44073A1
:1049E000E16C0B43C2F88830236813F0200F08D025
:1049F0009F4AD2F8883023F44063216D0B43C2F8FC
:104A00008830236813F4007F08D0994AD2F88830A0
:104A100023F44023616E0B43C2F88830236813F4FB
:104A2000806F08D0924AD2F8883023F44013A16EE8
:104A30000B43C2F88830236813F0400F08D08C4A2B
:104A4000D2F8883023F44053616D0B43C2F88830AC
:104A5000236813F0800F08D0854AD2F8883023F4F9
:104A60004043A16D0B43C2F88830236813F4807F64
:104A700008D07F4AD2F8883023F44033E16D0B43ED
:104A8000C2F88830236813F4801F08D0784AD2F81F
:104A90009C3023F00303216E0B43C2F89C30236843
:104AA00013F4005F11D0724AD2F8883023F04063CB
:104AB000616F0B43C2F88830636FB3F1006F00F091
:104AC0009180B3F1806F00F09280236813F4002F7F
:104AD00020D0A36FB3F5804F00F09380644AD2F8E2
:104AE0009C3023F48043C2F89C30D2F8883023F005
:104AF0004063A16F0B43C2F88830A36FB3F1006F1E
:104B000000F08780B3F5804F00F08980B3F1806FAB
:104B100000F08B80236813F4802F11D0544AD2F810
:104B2000883023F04063E16F0B43C2F88830E36FB5
:104B3000B3F1006F00F08380B3F1806F00F08480E8
:104B4000236813F4804F0ED0494AD2F8883023F0FE
:104B50004053D4F880100B43C2F88830D4F880302A
:104B6000B3F1805F7AD0236813F4803F09D0404AC4
:104B7000D2F89C3023F00403D4F884100B43C2F81D
:104B80009C30236813F4001F09D0394AD2F89C30B6
:104B900023F01803D4F888100B43C2F89C30236824
:104BA00013F4800F66D1236813F0807F0ED0304A53
:104BB000D2F89C3023F44013D4F890100B43C2F881
:104BC0009C30D4F89030B3F5001F7CD0304602B052
:104BD000BDE8F0812E46C2E6254A936D23F080534E
:104BE0009365C0E6D36843F48013D3606DE7012179
:104BF000201DFFF757FC054600283FF466AF064628
:104C000063E71B4AD2F89C3043F48043C2F89C30DF
:104C100073E7174AD36843F48013D3607AE7144AE2
:104C2000D36843F48033D36074E70121201DFFF77C
:104C300039FC054600283FF46DAF06466AE7D368A5
:104C400043F48013D3607BE70121201DFFF72AFC8A
:104C5000054600283FF474AF064671E70221201D87
:104C6000FFF720FC054600283FF47DAF06467AE7B3
:104C700000100240164A136823F080531360FCF7BB
:104C80005FF90746124B1B6813F0005F05D0FCF775
:104C900057F9C01B0228F5D903251DB1002D82D07C
:104CA0002E4680E70A4AD2F89C3023F44033D4F8E9
:104CB0008C100B43C2F89C30022104F12000FFF756
:104CC000ADFC0546EAE7D36843F48013D3607DE783
:104CD0000010024038B504460268D36823F0A003F0
:104CE000D360FCF72DF905462368DB6813F0200F2D
:104CF00007D1FCF725F9401BB0F57A7FF4D90320E2
:104D000038BD002038BD38B50368DA6812F0400FAE
:104D100001D0002038BD04464FF0FF32DA60FCF7C6
:104D20000FF905462368DB6813F0400F07D1FCF745
:104D300007F9401BB0F57A7FF4D9032038BD002075
:104D400038BD002867D038B5044690F82130002BD4
:104D500045D0022384F821302368CA225A6223688E
:104D600053225A622046FFF7CEFF024600283BD16D
:104D700021688B6823F4E00323F040038B602068F4
:104D80008168636825692B43A5692B430B438360C6
:104D90002368E168196121680B69A06843EA004350
:104DA0000B612168CB6823F08003CB6023689B688C
:104DB00013F0200F21D0F2B92168CB6C23F003034C
:104DC000CB642068C36CE169656929430B43C36404
:104DD0002368FF215962012384F821300BE080F819
:104DE00020300AF0E1FAB4E72368FF225A62042374
:104DF00084F821300122104638BD2046FFF76AFFB3
:104E000002460028D7D02368FF225A62042384F880
:104E100021300122CFE7012210467047F0B583B060
:104E2000044600230193FCF78BF80646206802F045
:104E300074FF054610B1284603B0F0BD206802F0AB
:104E40007FFF50B1002323640021206802F090FF0F
:104E5000074628B14FF08055EDE701232364F3E7BF
:104E6000054602E0019B01330193019A4FF6FE7360
:104E70009A4216D8ADB90021206802F079FF0546A4
:104E80000028D8D13C49206802F08BFF0546002855
:104E90006AD10021206802F0F8FDC30FE2D01D4660
:104EA000E0E7019A4FF6FE739A4202D94FF08075FF
:104EB000C1E710F0804F5AD00123E363A369012BAF
:104EC00001D03D46B7E710F0807F01D13D46B2E703
:104ED0004FF40073E3652268136843F00303136023
:104EE000206803F004F805460028A4D123685A6B13
:104EF00012F0806F08D1FCF723F8801BB0F1FF3F60
:104F0000F4D14FF0004596E74FF080629A63236832
:104F10005B6B13F4801F02D14FF080558BE70120AB
:104F200000F02EFB2268136843F00203136023682D
:104F30005A6B12F0007F08D1FCF702F8801BB0F129
:104F4000FF3FF4D14FF0004575E74FF000729A63D0
:104F500023685A6B12F4801F0BD113221A60236846
:104F60004FF0FF329A6366E74FF0805563E73D46A6
:104F700061E74FF080755EE7000010C12DE9F04158
:104F800088B004460F46FBF7DBFF0646002300937C
:104F900001930821206802F08EFE054618B12846CC
:104FA00008B0BDE8F081A16C0904206802F0E0FEC1
:104FB00005460028F3D14FF0FF33029308230393F3
:104FC00030230493022305930023069301230793C0
:104FD00002A9206802F05AFE206802F011FF05467F
:104FE0000028DCD1804605E0FBF7AAFF801BB0F16A
:104FF000FF3F48D02068426B40F22A531A4210D13A
:10500000436B13F4002FEFD1B8F1000FECD102F095
:1050100015FD0090206802F011FD019008F10108D3
:10502000E2E7436B13F0080F02D008258563B6E76B
:10503000436B13F0020F02D002258563AFE7436B89
:1050400013F0200F02D020258563A8E70F4B836360
:10505000019A130203F47F0343EA0263110A01F485
:105060007F410B4343EA12633B60009A130203F44F
:105070007F0343EA0263110A01F47F410B4343EAD1
:1050800012637B608BE74FF0004588E73A0F00180A
:1050900010B582B00446002100910191006802F031
:1050A000F4FC10F0007F04D04FF40063184602B007
:1050B00010BD69462046FFF761FF03460028F5D181
:1050C000019B13F4802F02D14FF08063EEE7A16CB7
:1050D0000904206802F04CFE03460028E6D10221B4
:1050E000206802F074FE0346E0E710B582B0044683
:1050F000002100910191006802F0C7FC10F0007FD0
:1051000004D04FF40063184602B010BD6946204633
:10511000FFF734FF03460028F5D1019B13F4803FCD
:1051200002D14FF08063EEE7A16C0904206802F021
:105130001FFE03460028E6D10021206802F047FE4A
:105140000346E0E710B4036E9B0F0B70036EC3F3CE
:1051500083634B7090F8633003F003038B7090F817
:105160006230CB7090F861300B7190F860304B7109
:10517000436E1B0DCB80B0F8663003F00F030B724B
:10518000436EC3F3C0334B72436EC3F380338B72F1
:10519000436EC3F34033CB72436EC3F300330B73E0
:1051A00000234B73C36B002B40F08880426E40F6A7
:1051B000FC7303EA8203826E43EA92730B61836E8F
:1051C000C3F3C2630B7590F86B3003F007034B75A4
:1051D000836EC3F342538B75836EC3F38243CB75E7
:1051E000836EC3F3C2330B760B690133C3640A7E4B
:1051F00002F00702023203FA02F2C2640B7A03F0F1
:105200000F040123A34003655B0A03FB02F343651C
:105210004FF400738365836EC3F380334B76836EE4
:10522000C3F3C6138B76836E03F07F03CB76C36E16
:10523000DB0F0B77C36EC3F341734B77C36EC3F3BE
:1052400082638B77C36EC3F38353CB77C36EC3F391
:10525000405381F82030002381F82130B0F86E20CF
:1052600002F0010281F82220C26EC2F3C03281F83E
:105270002320C26EC2F3803281F82420C26EC2F3B2
:10528000403281F82520C26EC2F3003281F8262018
:10529000C26EC2F3812281F82720C26EC2F30122BE
:1052A00081F82820C26EC2F3460281F8292001222B
:1052B00081F82A2018465DF8044B7047012B0BD06B
:1052C00003680E4A9A63836B43F080538363012320
:1052D00080F834301846EEE7436E1B0403F47C1369
:1052E000B0F86A2013430B610B6901339B02C3645E
:1052F00043654FF40073036583658CE7FF0FE01F80
:1053000010B58CB004460123ADF80230006802F0FD
:105310009EFB20B94FF0806318460CB010BDE36BC4
:10532000032B19D0206802F084FD03460028F3D136
:105330000021206802F0A9FB20670421206802F008
:10534000A4FB60670821206802F09FFBA0670C2186
:10535000206802F09AFBE067E36B032B07D00DF1A6
:105360000201206802F091FD03460028D4D1E36BCE
:10537000032B1DD0BDF80210A1640904206802F0BF
:105380006EFD03460028C7D10021206802F07DFB96
:1053900020660421206802F078FB606608212068FE
:1053A00002F073FBA0660C21206802F06EFBE06641
:1053B0000421206802F069FB000D606401A9204609
:1053C000FFF7C0FE10B14FF08053A5E7A26C1204A6
:1053D0000023206802F088FC03469DE730B58BB0BF
:1053E0000446002304930593069307933C230893F4
:1053F0008369012B0ED00AAB13E907008DE8070083
:1054000004AB0ECB206802F0FFFA48B10125284614
:105410000BB030BD0268136843F004031360EAE781
:10542000206802F00EFB054608B10125EFE70220D7
:10543000FBF78CFD2046FFF7F1FC034630B1012558
:1054400084F83450A26B1343A363E0E72046FFF7D0
:1054500057FF03460028DAD0012584F83450A26BA8
:105460001343A363D3E7000030B58BB004460D4669
:10547000032380F83430C36B032B25D0B1F5004FE4
:1054800011D0B1F5804F13D0C1B1836B43F00063ED
:105490008363A36BEBB123681A4A9A63012084F8F3
:1054A00034000BB030BD836B43F080538363F0E76F
:1054B000FFF7EEFDA36B1843A063EAE7FFF715FEC5
:1054C000A36B1843A063E4E7836B43F080538363CB
:1054D000DFE763680493A368059306952369079340
:1054E000636908930AAB13E907008DE8070004AB72
:1054F0000ECB206802F088FA012384F834300020B3
:10550000CFE700BFFF0FE01F38B5002834D00446B6
:1055100090F834304BB1032384F834302046FFF741
:105520005DFF30B10125284638BD037709F066FFDD
:10553000F1E7E1682046FFF797FF0546F0B9A36958
:10554000012B06D00023A3632363012384F83430A6
:10555000E9E7E36DB3F5007F02D0E36B012BF1D1F6
:105560002268536843F480135360204600F00AF821
:105570000028E7D00125D6E70125D4E70125D2E7A9
:10558000704700002DE9F04196B00446402200210A
:1055900068460BF0F0FDFBF7D3FCE36D2BB94FF041
:1055A0008065284616B0BDE8F0810746B3F5007F58
:1055B00001D00025F5E7A369012B01D00025F0E714
:1055C00023680022DA624021206802F074FB05465D
:1055D0000028E6D14FF0FF3310934023119360234E
:1055E000129302231393002314930123159310A9FC
:1055F000206802F04BFB3349206802F05FFC05464F
:105600000028CED16E4617E0206802F017FA3070FD
:10561000C0F307237370C0F30743B370000EF0703C
:10562000043608F10108B8F1070FEDD9FBF788FC43
:10563000C01BB0F1FF3F0BD02368596B40F22A52D8
:1056400011420CD15B6B13F4004FEFD0A846EAE790
:105650004FF00045A563012384F83430A1E75A6B6D
:1056600012F0080F06D15A6B12F0020F05D0022576
:105670009D6396E708229A6393E75A6B12F0200F16
:1056800002D020259D638CE70F4A9A639DF80D3068
:1056900013F0020F02D14FF0805582E70120FFF78F
:1056A0006FFF4FF40071206802F005FB05460028EB
:1056B0003FF477AF012384F83430A36B0343A36333
:1056C0006FE700BF01FFFF803A0F0018F8B50546ED
:1056D0000F4616461C462B689B6837EA03030CBF2F
:1056E00001230023B34237D0B4F1FF3FF3D0FBF7DF
:1056F00027FC069BC01A844201D9002CEBD12A68F2
:10570000536823F0E00353606B68B3F5827F0BD0DE
:10571000AB6AB3F5005F14D0012385F85D30002338
:1057200085F85C300320F8BDAB68B3F5004F02D0BC
:10573000B3F5806FECD12A68136823F0400313603F
:10574000E6E72A68136823F4005313602A68136895
:1057500043F400531360DFE70020F8BDF8B50746B7
:105760000C4615461E4602E0B6F1FF3F0BD13A68E3
:1057700093682340AB423BD0B4F5C06FF4D1002D09
:10578000F2D1137BF0E7FBF7DBFB069BC01A8642E6
:1057900001D9002EEBD13A68536823F0E00353603F
:1057A0007B68B3F5827F0BD0BB6AB3F5005F14D082
:1057B000012387F85D30002387F85C300320F8BDB3
:1057C000BB68B3F5004F02D0B3F5806FECD13A68F7
:1057D000136823F040031360E6E73A68136823F484
:1057E000005313603A68136843F400531360DFE713
:1057F0000020F8BD70B582B004460D4616460092F2
:105800000B4600224FF4C051FFF7A8FF38B1236EBA
:1058100043F0200323660323184602B070BD0096B0
:105820002B46002280212046FFF750FF28B1236E2F
:1058300043F0200323660323EEE700962B46002265
:105840004FF4C0612046FFF789FF03460028E3D0EC
:10585000236E43F0200323660323DDE7002853D0A3
:1058600010B504460023836290F85D30002B40D0D1
:10587000022384F85D302268136823F0400313602C
:10588000E368B3F5E06F39D90021B3F5706F04D048
:10589000B3F5E06F01D00022A262226B22B9B3F50A
:1058A000E06F2ED90223236322686368A068034354
:1058B0002069034360690343A06900F40070034357
:1058C000E0690343206A0343A06A0343136022682C
:1058D000638B03F00403606A0343606B0343E06877
:1058E00003430B43536000202066012384F85D309E
:1058F00010BD80F85C3009F0F7FDB9E74FF4805136
:10590000C3E701232363CFE701207047034690F8E4
:105910005C00012847D0012083F85C00002939D0C1
:10592000002A39D093F85D00C0B2012801D00220CE
:1059300033E0032083F85D000020186699639A879E
:10594000DA871864A3F84400A3F84600D864DA683C
:10595000B2F5E06F15D9154A1A659A68B2F5004F8D
:1059600012D019684A6842F0A0024A601A681168A9
:1059700011F0400F15D1116841F040011160002075
:105980000BE00B4A1A65E8E719680A6842F480429E
:105990000A60E6E7012000E00120002283F85C2095
:1059A00070470020F9E70220704700BF355A000811
:1059B0000D5A0008704710B582B00446FBF7C0FAD4
:1059C0002268536823F0A0035360024664212046F6
:1059D000FFF710FF18B1236E43F020032366A3687E
:1059E00033B901932368DA6801929B680193019BA4
:1059F000012384F85D30236E23B9204609F04EF967
:105A000002B010BD2046FFF7D5FFF9E708B50368DF
:105A1000826B12781A73836B01338363C38F9BB2DB
:105A2000013B9BB2C387C38F9BB203B108BDFFF795
:105A3000C2FFFBE708B50368826B1288DA60836BEC
:105A400002338363C38F9BB2013B9BB2C387C38F77
:105A50009BB203B108BDFFF7AEFFFBE710B584B002
:105A6000044602685168936803F04100012867D03A
:105A700013F0020F02D011F0800F68D113F4B07F41
:105A800068D011F0200F65D013F0400F0FD094F8BC
:105A90005D00C0B203285FD0206E40F00400206695
:105AA00000200090D068009090680090009813F05B
:105AB000200F0CD0206E40F00100206600200290E4
:105AC00090680290106820F040001060029A13F471
:105AD000807F09D0236E43F00803236600230393DD
